{
  "contractName": "ProjectIDO",
  "abi": [
    {
      "inputs": [],
      "name": "projectId",
      "outputs": [
        {
          "internalType": "uint256",
          "name": "",
          "type": "uint256"
        }
      ],
      "stateMutability": "view",
      "type": "function"
    },
    {
      "inputs": [
        {
          "internalType": "uint256",
          "name": "",
          "type": "uint256"
        }
      ],
      "name": "projectIds",
      "outputs": [
        {
          "internalType": "uint256",
          "name": "",
          "type": "uint256"
        }
      ],
      "stateMutability": "view",
      "type": "function"
    },
    {
      "inputs": [
        {
          "internalType": "uint256",
          "name": "",
          "type": "uint256"
        }
      ],
      "name": "projects",
      "outputs": [
        {
          "internalType": "contract Token",
          "name": "token",
          "type": "address"
        },
        {
          "internalType": "string",
          "name": "title",
          "type": "string"
        },
        {
          "internalType": "string",
          "name": "description",
          "type": "string"
        },
        {
          "internalType": "uint256",
          "name": "minContribute",
          "type": "uint256"
        },
        {
          "internalType": "uint256",
          "name": "raiseTarget",
          "type": "uint256"
        },
        {
          "internalType": "uint256",
          "name": "totalContributedETH",
          "type": "uint256"
        }
      ],
      "stateMutability": "view",
      "type": "function"
    },
    {
      "inputs": [
        {
          "internalType": "string",
          "name": "_title",
          "type": "string"
        },
        {
          "internalType": "string",
          "name": "_description",
          "type": "string"
        },
        {
          "internalType": "uint256",
          "name": "_minContribute",
          "type": "uint256"
        },
        {
          "internalType": "uint256",
          "name": "_raiseTarget",
          "type": "uint256"
        },
        {
          "internalType": "string",
          "name": "_tokenName",
          "type": "string"
        },
        {
          "internalType": "string",
          "name": "_tokenSymbol",
          "type": "string"
        },
        {
          "internalType": "uint256",
          "name": "_tokenInitialSupply",
          "type": "uint256"
        }
      ],
      "name": "createProject",
      "outputs": [],
      "stateMutability": "nonpayable",
      "type": "function"
    },
    {
      "inputs": [],
      "name": "getProjectIds",
      "outputs": [
        {
          "internalType": "uint256[]",
          "name": "",
          "type": "uint256[]"
        }
      ],
      "stateMutability": "view",
      "type": "function"
    },
    {
      "inputs": [
        {
          "internalType": "uint256",
          "name": "_projectId",
          "type": "uint256"
        }
      ],
      "name": "getProjectDetails",
      "outputs": [
        {
          "internalType": "contract Token",
          "name": "",
          "type": "address"
        },
        {
          "internalType": "uint256",
          "name": "",
          "type": "uint256"
        },
        {
          "internalType": "address[]",
          "name": "",
          "type": "address[]"
        },
        {
          "internalType": "uint256",
          "name": "",
          "type": "uint256"
        }
      ],
      "stateMutability": "view",
      "type": "function"
    }
  ],
  "bytecode": "0x608060405234801561001057600080fd5b5061235e806100206000396000f3fe60806040523480156200001157600080fd5b50600436106200006a5760003560e01c8063107046bd146200006f57806329a613b514620000aa5780633fafa12714620000cc57806348c35ad414620000ee578063554c1b5a14620001245780635f8439e31462000144575b600080fd5b6200008d6004803603810190620000879190620006ee565b6200017d565b604051620000a19695949392919062000860565b60405180910390f35b620000b4620002f9565b604051620000c39190620009a9565b60405180910390f35b620000d662000353565b604051620000e59190620009cd565b60405180910390f35b6200010c6004803603810190620001069190620006ee565b62000359565b6040516200011b9190620009cd565b60405180910390f35b6200014260048036038101906200013c919062000b3b565b6200037e565b005b6200016260048036038101906200015c9190620006ee565b620004f8565b60405162000174949392919062000d4c565b60405180910390f35b60006020528060005260406000206000915090508060000160009054906101000a900473ffffffffffffffffffffffffffffffffffffffff1690806001018054620001c89062000dcf565b80601f0160208091040260200160405190810160405280929190818152602001828054620001f69062000dcf565b8015620002475780601f106200021b5761010080835404028352916020019162000247565b820191906000526020600020905b8154815290600101906020018083116200022957829003601f168201915b5050505050908060020180546200025e9062000dcf565b80601f01602080910402602001604051908101604052809291908181526020018280546200028c9062000dcf565b8015620002dd5780601f10620002b157610100808354040283529160200191620002dd565b820191906000526020600020905b815481529060010190602001808311620002bf57829003601f168201915b5050505050908060030154908060040154908060070154905086565b606060018054806020026020016040519081016040528092919081815260200182805480156200034957602002820191906000526020600020905b81548152602001906001019080831162000334575b5050505050905090565b60025481565b600181815481106200036a57600080fd5b906000526020600020016000915090505481565b60026000815480929190620003939062000e33565b91905055506000838383604051620003ab90620005e1565b620003b99392919062000e80565b604051809103906000f080158015620003d6573d6000803e3d6000fd5b50905080600080600254815260200190815260200160002060000160006101000a81548173ffffffffffffffffffffffffffffffffffffffff021916908373ffffffffffffffffffffffffffffffffffffffff16021790555087600080600254815260200190815260200160002060010190805190602001906200045c929190620005ef565b5086600080600254815260200190815260200160002060020190805190602001906200048a929190620005ef565b508560008060025481526020019081526020016000206003018190555084600080600254815260200190815260200160002060040181905550600160025490806001815401808255809150506001900390600052602060002001600090919091909150555050505050505050565b600080606060008060008087815260200190815260200160002090508060000160009054906101000a900473ffffffffffffffffffffffffffffffffffffffff16816004015482600501836007015481805480602002602001604051908101604052809291908181526020018280548015620005ca57602002820191906000526020600020905b8160009054906101000a900473ffffffffffffffffffffffffffffffffffffffff1673ffffffffffffffffffffffffffffffffffffffff16815260200190600101908083116200057f575b505050505091509450945094509450509193509193565b61145d8062000ecc83390190565b828054620005fd9062000dcf565b90600052602060002090601f0160209004810192826200062157600085556200066d565b82601f106200063c57805160ff19168380011785556200066d565b828001600101855582156200066d579182015b828111156200066c5782518255916020019190600101906200064f565b5b5090506200067c919062000680565b5090565b5b808211156200069b57600081600090555060010162000681565b5090565b6000604051905090565b600080fd5b600080fd5b6000819050919050565b620006c881620006b3565b8114620006d457600080fd5b50565b600081359050620006e881620006bd565b92915050565b600060208284031215620007075762000706620006a9565b5b60006200071784828501620006d7565b91505092915050565b600073ffffffffffffffffffffffffffffffffffffffff82169050919050565b6000819050919050565b60006200076b620007656200075f8462000720565b62000740565b62000720565b9050919050565b60006200077f826200074a565b9050919050565b6000620007938262000772565b9050919050565b620007a58162000786565b82525050565b600081519050919050565b600082825260208201905092915050565b60005b83811015620007e7578082015181840152602081019050620007ca565b83811115620007f7576000848401525b50505050565b6000601f19601f8301169050919050565b60006200081b82620007ab565b620008278185620007b6565b935062000839818560208601620007c7565b6200084481620007fd565b840191505092915050565b6200085a81620006b3565b82525050565b600060c0820190506200087760008301896200079a565b81810360208301526200088b81886200080e565b90508181036040830152620008a181876200080e565b9050620008b260608301866200084f565b620008c160808301856200084f565b620008d060a08301846200084f565b979650505050505050565b600081519050919050565b600082825260208201905092915050565b6000819050602082019050919050565b6200091281620006b3565b82525050565b600062000926838362000907565b60208301905092915050565b6000602082019050919050565b60006200094c82620008db565b620009588185620008e6565b93506200096583620008f7565b8060005b838110156200099c57815162000980888262000918565b97506200098d8362000932565b92505060018101905062000969565b5085935050505092915050565b60006020820190508181036000830152620009c581846200093f565b905092915050565b6000602082019050620009e460008301846200084f565b92915050565b600080fd5b600080fd5b7f4e487b7100000000000000000000000000000000000000000000000000000000600052604160045260246000fd5b62000a2e82620007fd565b810181811067ffffffffffffffff8211171562000a505762000a4f620009f4565b5b80604052505050565b600062000a656200069f565b905062000a73828262000a23565b919050565b600067ffffffffffffffff82111562000a965762000a95620009f4565b5b62000aa182620007fd565b9050602081019050919050565b82818337600083830152505050565b600062000ad462000ace8462000a78565b62000a59565b90508281526020810184848401111562000af35762000af2620009ef565b5b62000b0084828562000aae565b509392505050565b600082601f83011262000b205762000b1f620009ea565b5b813562000b3284826020860162000abd565b91505092915050565b600080600080600080600060e0888a03121562000b5d5762000b5c620006a9565b5b600088013567ffffffffffffffff81111562000b7e5762000b7d620006ae565b5b62000b8c8a828b0162000b08565b975050602088013567ffffffffffffffff81111562000bb05762000baf620006ae565b5b62000bbe8a828b0162000b08565b965050604062000bd18a828b01620006d7565b955050606062000be48a828b01620006d7565b945050608088013567ffffffffffffffff81111562000c085762000c07620006ae565b5b62000c168a828b0162000b08565b93505060a088013567ffffffffffffffff81111562000c3a5762000c39620006ae565b5b62000c488a828b0162000b08565b92505060c062000c5b8a828b01620006d7565b91505092959891949750929550565b600081519050919050565b600082825260208201905092915050565b6000819050602082019050919050565b600062000ca38262000720565b9050919050565b62000cb58162000c96565b82525050565b600062000cc9838362000caa565b60208301905092915050565b6000602082019050919050565b600062000cef8262000c6a565b62000cfb818562000c75565b935062000d088362000c86565b8060005b8381101562000d3f57815162000d23888262000cbb565b975062000d308362000cd5565b92505060018101905062000d0c565b5085935050505092915050565b600060808201905062000d6360008301876200079a565b62000d7260208301866200084f565b818103604083015262000d86818562000ce2565b905062000d9760608301846200084f565b95945050505050565b7f4e487b7100000000000000000000000000000000000000000000000000000000600052602260045260246000fd5b6000600282049050600182168062000de857607f821691505b60208210810362000dfe5762000dfd62000da0565b5b50919050565b7f4e487b7100000000000000000000000000000000000000000000000000000000600052601160045260246000fd5b600062000e4082620006b3565b91507fffffffffffffffffffffffffffffffffffffffffffffffffffffffffffffffff820362000e755762000e7462000e04565b5b600182019050919050565b6000606082019050818103600083015262000e9c81866200080e565b9050818103602083015262000eb281856200080e565b905062000ec360408301846200084f565b94935050505056fe60806040523480156200001157600080fd5b506040516200145d3803806200145d833981810160405281019062000037919062000367565b82600090805190602001906200004f929190620000df565b50816001908051906020019062000068929190620000df565b508060028190555080600560003373ffffffffffffffffffffffffffffffffffffffff1673ffffffffffffffffffffffffffffffffffffffff16815260200190815260200160002081905550806003819055506001600460006101000a81548160ff02191690831515021790555050505062000465565b828054620000ed9062000430565b90600052602060002090601f0160209004810192826200011157600085556200015d565b82601f106200012c57805160ff19168380011785556200015d565b828001600101855582156200015d579182015b828111156200015c5782518255916020019190600101906200013f565b5b5090506200016c919062000170565b5090565b5b808211156200018b57600081600090555060010162000171565b5090565b6000604051905090565b600080fd5b600080fd5b600080fd5b600080fd5b6000601f19601f8301169050919050565b7f4e487b7100000000000000000000000000000000000000000000000000000000600052604160045260246000fd5b620001f882620001ad565b810181811067ffffffffffffffff821117156200021a5762000219620001be565b5b80604052505050565b60006200022f6200018f565b90506200023d8282620001ed565b919050565b600067ffffffffffffffff82111562000260576200025f620001be565b5b6200026b82620001ad565b9050602081019050919050565b60005b83811015620002985780820151818401526020810190506200027b565b83811115620002a8576000848401525b50505050565b6000620002c5620002bf8462000242565b62000223565b905082815260208101848484011115620002e457620002e3620001a8565b5b620002f184828562000278565b509392505050565b600082601f830112620003115762000310620001a3565b5b815162000323848260208601620002ae565b91505092915050565b6000819050919050565b62000341816200032c565b81146200034d57600080fd5b50565b600081519050620003618162000336565b92915050565b60008060006060848603121562000383576200038262000199565b5b600084015167ffffffffffffffff811115620003a457620003a36200019e565b5b620003b286828701620002f9565b935050602084015167ffffffffffffffff811115620003d657620003d56200019e565b5b620003e486828701620002f9565b9250506040620003f78682870162000350565b9150509250925092565b7f4e487b7100000000000000000000000000000000000000000000000000000000600052602260045260246000fd5b600060028204905060018216806200044957607f821691505b6020821081036200045f576200045e62000401565b5b50919050565b610fe880620004756000396000f3fe608060405234801561001057600080fd5b50600436106100935760003560e01c80634bd09c2a116100665780634bd09c2a1461010e5780636a6305591461012a5780636ab28bc81461014857806395d89b4114610166578063a9059cbb1461018457610093565b806306fdde031461009857806318160ddd146100b657806318a24b5b146100d457806327e235e3146100de575b600080fd5b6100a06101a0565b6040516100ad9190610858565b60405180910390f35b6100be61022e565b6040516100cb9190610893565b60405180910390f35b6100dc610234565b005b6100f860048036038101906100f39190610920565b610358565b6040516101059190610893565b60405180910390f35b61012860048036038101906101239190610b84565b610370565b005b610132610596565b60405161013f9190610c17565b60405180910390f35b6101506105a9565b60405161015d9190610893565b60405180910390f35b61016e6105af565b60405161017b9190610858565b60405180910390f35b61019e60048036038101906101999190610c32565b61063d565b005b600080546101ad90610ca1565b80601f01602080910402602001604051908101604052809291908181526020018280546101d990610ca1565b80156102265780601f106101fb57610100808354040283529160200191610226565b820191906000526020600020905b81548152906001019060200180831161020957829003601f168201915b505050505081565b60025481565b600460009054906101000a900460ff16610283576040517f08c379a000000000000000000000000000000000000000000000000000000000815260040161027a90610d1e565b60405180910390fd5b6000600460006101000a81548160ff021916908315150217905550600354600560003373ffffffffffffffffffffffffffffffffffffffff1673ffffffffffffffffffffffffffffffffffffffff16815260200190815260200160002060008282546102ef9190610d6d565b92505081905550600354600560003073ffffffffffffffffffffffffffffffffffffffff1673ffffffffffffffffffffffffffffffffffffffff16815260200190815260200160002060008282546103479190610da1565b925050819055506000600381905550565b60056020528060005260406000206000915090505481565b600460009054906101000a900460ff16156103c0576040517f08c379a00000000000000000000000000000000000000000000000000000000081526004016103b790610e43565b60405180910390fd5b8051825114610404576040517f08c379a00000000000000000000000000000000000000000000000000000000081526004016103fb90610eaf565b60405180910390fd5b60005b825181101561059157600083828151811061042557610424610ecf565b5b60200260200101519050600083838151811061044457610443610ecf565b5b6020026020010151905080600560003073ffffffffffffffffffffffffffffffffffffffff1673ffffffffffffffffffffffffffffffffffffffff1681526020019081526020016000205410156104d0576040517f08c379a00000000000000000000000000000000000000000000000000000000081526004016104c790610f4a565b60405180910390fd5b80600560003073ffffffffffffffffffffffffffffffffffffffff1673ffffffffffffffffffffffffffffffffffffffff168152602001908152602001600020600082825461051f9190610d6d565b9250508190555080600560008473ffffffffffffffffffffffffffffffffffffffff1673ffffffffffffffffffffffffffffffffffffffff16815260200190815260200160002060008282546105759190610da1565b925050819055505050808061058990610f6a565b915050610407565b505050565b600460009054906101000a900460ff1681565b60035481565b600180546105bc90610ca1565b80601f01602080910402602001604051908101604052809291908181526020018280546105e890610ca1565b80156106355780601f1061060a57610100808354040283529160200191610635565b820191906000526020600020905b81548152906001019060200180831161061857829003601f168201915b505050505081565b600460009054906101000a900460ff161561068d576040517f08c379a000000000000000000000000000000000000000000000000000000000815260040161068490610e43565b60405180910390fd5b80600560003373ffffffffffffffffffffffffffffffffffffffff1673ffffffffffffffffffffffffffffffffffffffff16815260200190815260200160002054101561070f576040517f08c379a000000000000000000000000000000000000000000000000000000000815260040161070690610f4a565b60405180910390fd5b80600560003373ffffffffffffffffffffffffffffffffffffffff1673ffffffffffffffffffffffffffffffffffffffff168152602001908152602001600020600082825461075e9190610d6d565b9250508190555080600560008473ffffffffffffffffffffffffffffffffffffffff1673ffffffffffffffffffffffffffffffffffffffff16815260200190815260200160002060008282546107b49190610da1565b925050819055505050565b600081519050919050565b600082825260208201905092915050565b60005b838110156107f95780820151818401526020810190506107de565b83811115610808576000848401525b50505050565b6000601f19601f8301169050919050565b600061082a826107bf565b61083481856107ca565b93506108448185602086016107db565b61084d8161080e565b840191505092915050565b60006020820190508181036000830152610872818461081f565b905092915050565b6000819050919050565b61088d8161087a565b82525050565b60006020820190506108a86000830184610884565b92915050565b6000604051905090565b600080fd5b600080fd5b600073ffffffffffffffffffffffffffffffffffffffff82169050919050565b60006108ed826108c2565b9050919050565b6108fd816108e2565b811461090857600080fd5b50565b60008135905061091a816108f4565b92915050565b600060208284031215610936576109356108b8565b5b60006109448482850161090b565b91505092915050565b600080fd5b7f4e487b7100000000000000000000000000000000000000000000000000000000600052604160045260246000fd5b61098a8261080e565b810181811067ffffffffffffffff821117156109a9576109a8610952565b5b80604052505050565b60006109bc6108ae565b90506109c88282610981565b919050565b600067ffffffffffffffff8211156109e8576109e7610952565b5b602082029050602081019050919050565b600080fd5b6000610a11610a0c846109cd565b6109b2565b90508083825260208201905060208402830185811115610a3457610a336109f9565b5b835b81811015610a5d5780610a49888261090b565b845260208401935050602081019050610a36565b5050509392505050565b600082601f830112610a7c57610a7b61094d565b5b8135610a8c8482602086016109fe565b91505092915050565b600067ffffffffffffffff821115610ab057610aaf610952565b5b602082029050602081019050919050565b610aca8161087a565b8114610ad557600080fd5b50565b600081359050610ae781610ac1565b92915050565b6000610b00610afb84610a95565b6109b2565b90508083825260208201905060208402830185811115610b2357610b226109f9565b5b835b81811015610b4c5780610b388882610ad8565b845260208401935050602081019050610b25565b5050509392505050565b600082601f830112610b6b57610b6a61094d565b5b8135610b7b848260208601610aed565b91505092915050565b60008060408385031215610b9b57610b9a6108b8565b5b600083013567ffffffffffffffff811115610bb957610bb86108bd565b5b610bc585828601610a67565b925050602083013567ffffffffffffffff811115610be657610be56108bd565b5b610bf285828601610b56565b9150509250929050565b60008115159050919050565b610c1181610bfc565b82525050565b6000602082019050610c2c6000830184610c08565b92915050565b60008060408385031215610c4957610c486108b8565b5b6000610c578582860161090b565b9250506020610c6885828601610ad8565b9150509250929050565b7f4e487b7100000000000000000000000000000000000000000000000000000000600052602260045260246000fd5b60006002820490506001821680610cb957607f821691505b602082108103610ccc57610ccb610c72565b5b50919050565b7f546f6b656e20697320616c726561647920756e6c6f636b656400000000000000600082015250565b6000610d086019836107ca565b9150610d1382610cd2565b602082019050919050565b60006020820190508181036000830152610d3781610cfb565b9050919050565b7f4e487b7100000000000000000000000000000000000000000000000000000000600052601160045260246000fd5b6000610d788261087a565b9150610d838361087a565b925082821015610d9657610d95610d3e565b5b828203905092915050565b6000610dac8261087a565b9150610db78361087a565b9250827fffffffffffffffffffffffffffffffffffffffffffffffffffffffffffffffff03821115610dec57610deb610d3e565b5b828201905092915050565b7f546f6b656e206973206c6f636b65640000000000000000000000000000000000600082015250565b6000610e2d600f836107ca565b9150610e3882610df7565b602082019050919050565b60006020820190508181036000830152610e5c81610e20565b9050919050565b7f496e76616c696420696e70757400000000000000000000000000000000000000600082015250565b6000610e99600d836107ca565b9150610ea482610e63565b602082019050919050565b60006020820190508181036000830152610ec881610e8c565b9050919050565b7f4e487b7100000000000000000000000000000000000000000000000000000000600052603260045260246000fd5b7f496e73756666696369656e742062616c616e6365000000000000000000000000600082015250565b6000610f346014836107ca565b9150610f3f82610efe565b602082019050919050565b60006020820190508181036000830152610f6381610f27565b9050919050565b6000610f758261087a565b91507fffffffffffffffffffffffffffffffffffffffffffffffffffffffffffffffff8203610fa757610fa6610d3e565b5b60018201905091905056fea26469706673582212206692b67d7ead43c2e936f0a3488dbe72508a1273189b5b764e8f0a0019c5436964736f6c634300080d0033a264697066735822122078d15794a5ed9a4d88cc459814a59c016fbcf0648a4af883ee4d907de049cb3864736f6c634300080d0033",
  "immutableReferences": {},
  "source": "// SPDX-License-Identifier: MIT\npragma solidity ^0.8.0;\n\n\ncontract Token {\n    string public name;\n    string public symbol;\n    uint256 public totalSupply;\n    uint256 public lockedAmount; // S lng token b kha\n    bool public tokenLocked; // C  kim tra trng thi kha token\n    mapping(address => uint256) public balances;\n\n    constructor(string memory _name, string memory _symbol, uint256 _initialSupply) {\n        name = _name;\n        symbol = _symbol;\n        totalSupply = _initialSupply;\n        balances[msg.sender] = _initialSupply;\n        lockedAmount = _initialSupply; // S lng token b kha ban u l ton b totalSupply\n        tokenLocked = true; // Ban u token b kha\n    }\n\n\n    function transfer(address _to, uint256 _amount) public {\n        require(!tokenLocked, \"Token is locked\"); // Kim tra trng thi kha token\n        require(balances[msg.sender] >= _amount, \"Insufficient balance\");\n        balances[msg.sender] -= _amount;\n        balances[_to] += _amount;\n    }\n\n    function unlockToken() public {\n        require(tokenLocked, \"Token is already unlocked\");\n        tokenLocked = false; // M kha token\n        balances[msg.sender] -= lockedAmount; // Gim s lng token b kha t ti khon ca ngi to\n        balances[address(this)] += lockedAmount; // Tng s lng token b kha vo ti khon Smart Contract\n        lockedAmount = 0; // t s lng token b kha v 0\n    }\n\n    function distributeTokens(address[] memory _investors, uint256[] memory _amounts) public {\n        require(!tokenLocked, \"Token is locked\");\n        require(_investors.length == _amounts.length, \"Invalid input\");\n\n        for (uint256 i = 0; i < _investors.length; i++) {\n            address investor = _investors[i];\n            uint256 amount = _amounts[i];\n\n            require(balances[address(this)] >= amount, \"Insufficient balance\");\n            balances[address(this)] -= amount;\n            balances[investor] += amount;\n        }\n    }\n}\n\ncontract ProjectIDO {\n    struct Project {\n        Token token;\n        string title;\n        string description;\n        uint256 minContribute;\n        uint256 raiseTarget;\n        address[] contributorAddresses; // Store the addresses of contributors\n        mapping(address => uint256) contributions; // Store the contribution amounts\n        uint256 totalContributedETH;\n    }\n\n    mapping(uint256 => Project) public projects;\n    uint256[] public projectIds; // Store the IDs of all projects\n    uint256 public projectId;\n\n    function createProject(\n        string memory _title,\n        string memory _description,\n        uint256 _minContribute,\n        uint256 _raiseTarget,\n        string memory _tokenName,\n        string memory _tokenSymbol,\n        uint256 _tokenInitialSupply\n    ) external {\n        projectId++;\n\n        // Deploy a new Token contract\n        Token token = new Token(_tokenName, _tokenSymbol, _tokenInitialSupply);\n\n        // Store the address of the Token contract in the project\n        projects[projectId].token = token;\n        projects[projectId].title = _title;\n        projects[projectId].description = _description;\n        projects[projectId].minContribute = _minContribute;\n        projects[projectId].raiseTarget = _raiseTarget;\n\n        // Add the project ID to the projectIds array\n        projectIds.push(projectId);\n    }\n\n    function getProjectIds() external view returns (uint256[] memory) {\n        return projectIds;\n    }\n\n    function getProjectDetails(uint256 _projectId)\n        external\n        view\n        returns (\n            Token,\n            uint256,\n            address[] memory,\n            uint256\n        )\n    {\n        Project storage project = projects[_projectId];\n        return (\n            project.token,\n            project.raiseTarget,\n            project.contributorAddresses,\n            project.totalContributedETH\n        );\n    }\n\n    // Rest of the contract...\n}\n",
  "sourcePath": "/Users/nguyenlam/Downloads/dev/Study/Blockchain/truffle-ido/contracts/ProjectIDO.sol",
  "compiler": {
    "name": "solc",
    "version": "0.8.13+commit.abaa5c0e.Emscripten.clang"
  },
  "schemaVersion": "3.4.14",
  "updatedAt": "2023-06-30T01:46:42.911Z",
  "devdoc": {
    "kind": "dev",
    "methods": {},
    "version": 1
  },
  "userdoc": {
    "kind": "user",
    "methods": {},
    "version": 1
  }
}