{
  "contractName": "ProjectIDO",
  "abi": [
    {
      "anonymous": false,
      "inputs": [
        {
          "indexed": false,
          "internalType": "uint256",
          "name": "projectId",
          "type": "uint256"
        }
      ],
      "name": "ProjectCreated",
      "type": "event"
    },
    {
      "inputs": [],
      "name": "projectId",
      "outputs": [
        {
          "internalType": "uint256",
          "name": "",
          "type": "uint256"
        }
      ],
      "stateMutability": "view",
      "type": "function",
      "constant": true
    },
    {
      "inputs": [
        {
          "internalType": "uint256",
          "name": "",
          "type": "uint256"
        }
      ],
      "name": "projectIds",
      "outputs": [
        {
          "internalType": "uint256",
          "name": "",
          "type": "uint256"
        }
      ],
      "stateMutability": "view",
      "type": "function",
      "constant": true
    },
    {
      "inputs": [
        {
          "internalType": "uint256",
          "name": "",
          "type": "uint256"
        }
      ],
      "name": "projects",
      "outputs": [
        {
          "internalType": "bool",
          "name": "isCompleted",
          "type": "bool"
        },
        {
          "internalType": "contract Token",
          "name": "token",
          "type": "address"
        },
        {
          "internalType": "address",
          "name": "createdBy",
          "type": "address"
        },
        {
          "internalType": "string",
          "name": "title",
          "type": "string"
        },
        {
          "internalType": "string",
          "name": "description",
          "type": "string"
        },
        {
          "internalType": "uint256",
          "name": "minContribute",
          "type": "uint256"
        },
        {
          "internalType": "uint256",
          "name": "raiseTarget",
          "type": "uint256"
        },
        {
          "internalType": "uint256",
          "name": "totalContributedETH",
          "type": "uint256"
        }
      ],
      "stateMutability": "view",
      "type": "function",
      "constant": true
    },
    {
      "inputs": [
        {
          "internalType": "string",
          "name": "_title",
          "type": "string"
        },
        {
          "internalType": "string",
          "name": "_description",
          "type": "string"
        },
        {
          "internalType": "uint256",
          "name": "_minContribute",
          "type": "uint256"
        },
        {
          "internalType": "uint256",
          "name": "_raiseTarget",
          "type": "uint256"
        },
        {
          "internalType": "string",
          "name": "_tokenName",
          "type": "string"
        },
        {
          "internalType": "string",
          "name": "_tokenSymbol",
          "type": "string"
        },
        {
          "internalType": "uint256",
          "name": "_tokenInitialSupply",
          "type": "uint256"
        },
        {
          "internalType": "string",
          "name": "_tokenImage",
          "type": "string"
        }
      ],
      "name": "createProject",
      "outputs": [],
      "stateMutability": "nonpayable",
      "type": "function"
    },
    {
      "inputs": [],
      "name": "getProjectIds",
      "outputs": [
        {
          "internalType": "uint256[]",
          "name": "",
          "type": "uint256[]"
        }
      ],
      "stateMutability": "view",
      "type": "function",
      "constant": true
    },
    {
      "inputs": [
        {
          "internalType": "uint256",
          "name": "_projectId",
          "type": "uint256"
        }
      ],
      "name": "getProjectDetails",
      "outputs": [
        {
          "components": [
            {
              "internalType": "address",
              "name": "createdBy",
              "type": "address"
            },
            {
              "internalType": "string",
              "name": "title",
              "type": "string"
            },
            {
              "internalType": "string",
              "name": "description",
              "type": "string"
            },
            {
              "internalType": "uint256",
              "name": "minContribute",
              "type": "uint256"
            },
            {
              "internalType": "uint256",
              "name": "raiseTarget",
              "type": "uint256"
            },
            {
              "internalType": "address[]",
              "name": "contributorAddresses",
              "type": "address[]"
            },
            {
              "internalType": "uint256",
              "name": "totalContributedETH",
              "type": "uint256"
            },
            {
              "internalType": "contract Token",
              "name": "token",
              "type": "address"
            },
            {
              "internalType": "string",
              "name": "tokenName",
              "type": "string"
            },
            {
              "internalType": "string",
              "name": "tokenSymbol",
              "type": "string"
            },
            {
              "internalType": "string",
              "name": "tokenImage",
              "type": "string"
            },
            {
              "internalType": "bool",
              "name": "isCompleted",
              "type": "bool"
            }
          ],
          "internalType": "struct ProjectIDO.ProjectDetails",
          "name": "",
          "type": "tuple"
        }
      ],
      "stateMutability": "view",
      "type": "function",
      "constant": true
    },
    {
      "inputs": [
        {
          "internalType": "uint256",
          "name": "_projectId",
          "type": "uint256"
        }
      ],
      "name": "invest",
      "outputs": [],
      "stateMutability": "payable",
      "type": "function",
      "payable": true
    },
    {
      "inputs": [
        {
          "internalType": "uint256",
          "name": "_projectId",
          "type": "uint256"
        },
        {
          "internalType": "uint256",
          "name": "_amount",
          "type": "uint256"
        },
        {
          "internalType": "string",
          "name": "_reason",
          "type": "string"
        }
      ],
      "name": "withdrawFunds",
      "outputs": [],
      "stateMutability": "nonpayable",
      "type": "function"
    },
    {
      "inputs": [
        {
          "internalType": "uint256",
          "name": "_projectId",
          "type": "uint256"
        }
      ],
      "name": "getWithdrawalRequests",
      "outputs": [
        {
          "components": [
            {
              "internalType": "address",
              "name": "requester",
              "type": "address"
            },
            {
              "internalType": "uint256",
              "name": "amount",
              "type": "uint256"
            },
            {
              "internalType": "string",
              "name": "reason",
              "type": "string"
            },
            {
              "internalType": "uint256",
              "name": "timestamp",
              "type": "uint256"
            }
          ],
          "internalType": "struct ProjectIDO.WithdrawalRequest[]",
          "name": "",
          "type": "tuple[]"
        }
      ],
      "stateMutability": "view",
      "type": "function",
      "constant": true
    }
  ],
  "bytecode": "0x608060405234801561001057600080fd5b50613bd1806100206000396000f3fe608060405260043610620000925760003560e01c80633fafa12711620000615780633fafa127146200016057806348c35ad414620001905780635647cccb14620001d45780635f8439e314620002185780638d697630146200025c5762000092565b8063107046bd1462000097578063200f4b5914620000e257806329a613b514620001105780632afcf4801462000140575b600080fd5b348015620000a457600080fd5b50620000c36004803603810190620000bd919062001518565b6200028a565b604051620000d9989796959493929190620016cc565b60405180910390f35b348015620000ef57600080fd5b506200010e6004803603810190620001089190620018b9565b6200043f565b005b3480156200011d57600080fd5b50620001286200067d565b60405162000137919062001aeb565b60405180910390f35b6200015e600480360381019062000158919062001518565b620006d7565b005b3480156200016d57600080fd5b5062000178620009b9565b60405162000187919062001b0f565b60405180910390f35b3480156200019d57600080fd5b50620001bc6004803603810190620001b6919062001518565b620009bf565b604051620001cb919062001b0f565b60405180910390f35b348015620001e157600080fd5b50620002006004803603810190620001fa919062001518565b620009e4565b6040516200020f919062001cca565b60405180910390f35b3480156200022557600080fd5b506200024460048036038101906200023e919062001518565b62000b5e565b60405162000253919062001f0c565b60405180910390f35b3480156200026957600080fd5b5062000288600480360381019062000282919062001f30565b62000f30565b005b60006020528060005260406000206000915090508060000160009054906101000a900460ff16908060000160019054906101000a900473ffffffffffffffffffffffffffffffffffffffff16908060010160009054906101000a900473ffffffffffffffffffffffffffffffffffffffff16908060020180546200030e9062001fda565b80601f01602080910402602001604051908101604052809291908181526020018280546200033c9062001fda565b80156200038d5780601f1062000361576101008083540402835291602001916200038d565b820191906000526020600020905b8154815290600101906020018083116200036f57829003601f168201915b505050505090806003018054620003a49062001fda565b80601f0160208091040260200160405190810160405280929190818152602001828054620003d29062001fda565b8015620004235780601f10620003f75761010080835404028352916020019162000423565b820191906000526020600020905b8154815290600101906020018083116200040557829003601f168201915b5050505050908060040154908060050154908060080154905088565b6002600081548092919062000454906200203e565b91905055506000848484846040516200046d906200137c565b6200047c94939291906200208b565b604051809103906000f08015801562000499573d6000803e3d6000fd5b50905033600080600254815260200190815260200160002060010160006101000a81548173ffffffffffffffffffffffffffffffffffffffff021916908373ffffffffffffffffffffffffffffffffffffffff16021790555080600080600254815260200190815260200160002060000160016101000a81548173ffffffffffffffffffffffffffffffffffffffff021916908373ffffffffffffffffffffffffffffffffffffffff1602179055508860008060025481526020019081526020016000206002019080519060200190620005759291906200138a565b508760008060025481526020019081526020016000206003019080519060200190620005a39291906200138a565b5086600080600254815260200190815260200160002060040181905550856000806002548152602001908152602001600020600501819055506000806000600254815260200190815260200160002060000160006101000a81548160ff0219169083151502179055507f1ac2092e16e28eef29d1832f3dc69da1b21284a1f3159d3b26cb238b22fe4f8a6002546040516200063f919062001b0f565b60405180910390a160016002549080600181540180825580915050600190039060005260206000200160009091909190915055505050505050505050565b60606001805480602002602001604051908101604052809291908181526020018280548015620006cd57602002820191906000526020600020905b815481526020019060010190808311620006b8575b5050505050905090565b600080600083815260200190815260200160002090508060010160009054906101000a900473ffffffffffffffffffffffffffffffffffffffff1673ffffffffffffffffffffffffffffffffffffffff163373ffffffffffffffffffffffffffffffffffffffff160362000782576040517f08c379a000000000000000000000000000000000000000000000000000000000815260040162000779906200213d565b60405180910390fd5b8060040154341015620007cc576040517f08c379a0000000000000000000000000000000000000000000000000000000008152600401620007c390620021d5565b60405180910390fd5b60008160070160003373ffffffffffffffffffffffffffffffffffffffff1673ffffffffffffffffffffffffffffffffffffffff168152602001908152602001600020541462000853576040517f08c379a00000000000000000000000000000000000000000000000000000000081526004016200084a9062002247565b60405180910390fd5b8060050154816008015410620008a0576040517f08c379a00000000000000000000000000000000000000000000000000000000081526004016200089790620022b9565b60405180910390fd5b348160070160003373ffffffffffffffffffffffffffffffffffffffff1673ffffffffffffffffffffffffffffffffffffffff1681526020019081526020016000206000828254620008f39190620022db565b9250508190555034816008016000828254620009109190620022db565b9250508190555080600601339080600181540180825580915050600190039060005260206000200160009091909190916101000a81548173ffffffffffffffffffffffffffffffffffffffff021916908373ffffffffffffffffffffffffffffffffffffffff1602179055508060050154816008015410620009b55760018160000160006101000a81548160ff021916908315150217905550620009b48262001176565b5b5050565b60025481565b60018181548110620009d057600080fd5b906000526020600020016000915090505481565b6060600080838152602001908152602001600020600901805480602002602001604051908101604052809291908181526020016000905b8282101562000b5357838290600052602060002090600402016040518060800160405290816000820160009054906101000a900473ffffffffffffffffffffffffffffffffffffffff1673ffffffffffffffffffffffffffffffffffffffff1673ffffffffffffffffffffffffffffffffffffffff1681526020016001820154815260200160028201805462000ab19062001fda565b80601f016020809104026020016040519081016040528092919081815260200182805462000adf9062001fda565b801562000b305780601f1062000b045761010080835404028352916020019162000b30565b820191906000526020600020905b81548152906001019060200180831162000b1257829003601f168201915b505050505081526020016003820154815250508152602001906001019062000a1b565b505050509050919050565b62000b686200141b565b6000806000848152602001908152602001600020905060008160000160019054906101000a900473ffffffffffffffffffffffffffffffffffffffff16905060008060008373ffffffffffffffffffffffffffffffffffffffff16637a5b4f596040518163ffffffff1660e01b8152600401600060405180830381865afa15801562000bf8573d6000803e3d6000fd5b505050506040513d6000823e3d601f19601f8201168201806040525081019062000c239190620023b6565b92509250925062000c336200141b565b8560010160009054906101000a900473ffffffffffffffffffffffffffffffffffffffff16816000019073ffffffffffffffffffffffffffffffffffffffff16908173ffffffffffffffffffffffffffffffffffffffff168152505085600201805462000ca09062001fda565b80601f016020809104026020016040519081016040528092919081815260200182805462000cce9062001fda565b801562000d1f5780601f1062000cf35761010080835404028352916020019162000d1f565b820191906000526020600020905b81548152906001019060200180831162000d0157829003601f168201915b5050505050816020018190525085600301805462000d3d9062001fda565b80601f016020809104026020016040519081016040528092919081815260200182805462000d6b9062001fda565b801562000dbc5780601f1062000d905761010080835404028352916020019162000dbc565b820191906000526020600020905b81548152906001019060200180831162000d9e57829003601f168201915b50505050508160400181905250856004015481606001818152505085600501548160800181815250508560060180548060200260200160405190810160405280929190818152602001828054801562000e6b57602002820191906000526020600020905b8160009054906101000a900473ffffffffffffffffffffffffffffffffffffffff1673ffffffffffffffffffffffffffffffffffffffff168152602001906001019080831162000e20575b50505050508160a0018190525085600801548160c00181815250508560000160019054906101000a900473ffffffffffffffffffffffffffffffffffffffff168160e0019073ffffffffffffffffffffffffffffffffffffffff16908173ffffffffffffffffffffffffffffffffffffffff16815250508381610100018190525082816101200181905250818161014001819052508560000160009054906101000a900460ff1681610160019015159081151581525050809650505050505050919050565b600080600085815260200190815260200160002090503373ffffffffffffffffffffffffffffffffffffffff168160010160009054906101000a900473ffffffffffffffffffffffffffffffffffffffff1673ffffffffffffffffffffffffffffffffffffffff161462000fdb576040517f08c379a000000000000000000000000000000000000000000000000000000000815260040162000fd290620024e5565b60405180910390fd5b828160080154101562001025576040517f08c379a00000000000000000000000000000000000000000000000000000000081526004016200101c9062002557565b60405180910390fd5b600060405180608001604052803373ffffffffffffffffffffffffffffffffffffffff1681526020018581526020018481526020014281525090508160090181908060018154018082558091505060019003906000526020600020906004020160009091909190915060008201518160000160006101000a81548173ffffffffffffffffffffffffffffffffffffffff021916908373ffffffffffffffffffffffffffffffffffffffff160217905550602082015181600101556040820151816002019080519060200190620010fd9291906200138a565b506060820151816003015550503373ffffffffffffffffffffffffffffffffffffffff166108fc859081150290604051600060405180830381858888f1935050505015801562001151573d6000803e3d6000fd5b508382600801600082825462001168919062002579565b925050819055505050505050565b600080600083815260200190815260200160002090506000816006018054905011620011d9576040517f08c379a0000000000000000000000000000000000000000000000000000000008152600401620011d09062002604565b60405180910390fd5b60008160000160019054906101000a900473ffffffffffffffffffffffffffffffffffffffff16905060008173ffffffffffffffffffffffffffffffffffffffff16636ab28bc86040518163ffffffff1660e01b8152600401602060405180830381865afa15801562001250573d6000803e3d6000fd5b505050506040513d601f19601f820116820180604052508101906200127691906200263d565b905060008360060180549050826200128f91906200269e565b905060005b846006018054905081101562001374576000856006018281548110620012bf57620012be620026d6565b5b9060005260206000200160009054906101000a900473ffffffffffffffffffffffffffffffffffffffff1690508473ffffffffffffffffffffffffffffffffffffffff1663a9059cbb82856040518363ffffffff1660e01b81526004016200132992919062002705565b600060405180830381600087803b1580156200134457600080fd5b505af115801562001359573d6000803e3d6000fd5b505050505080806200136b906200203e565b91505062001294565b505050505050565b611469806200273383390190565b828054620013989062001fda565b90600052602060002090601f016020900481019282620013bc576000855562001408565b82601f10620013d757805160ff191683800117855562001408565b8280016001018555821562001408579182015b8281111562001407578251825591602001919060010190620013ea565b5b509050620014179190620014aa565b5090565b604051806101800160405280600073ffffffffffffffffffffffffffffffffffffffff168152602001606081526020016060815260200160008152602001600081526020016060815260200160008152602001600073ffffffffffffffffffffffffffffffffffffffff1681526020016060815260200160608152602001606081526020016000151581525090565b5b80821115620014c5576000816000905550600101620014ab565b5090565b6000604051905090565b600080fd5b600080fd5b6000819050919050565b620014f281620014dd565b8114620014fe57600080fd5b50565b6000813590506200151281620014e7565b92915050565b600060208284031215620015315762001530620014d3565b5b6000620015418482850162001501565b91505092915050565b60008115159050919050565b62001561816200154a565b82525050565b600073ffffffffffffffffffffffffffffffffffffffff82169050919050565b6000819050919050565b6000620015b2620015ac620015a68462001567565b62001587565b62001567565b9050919050565b6000620015c68262001591565b9050919050565b6000620015da82620015b9565b9050919050565b620015ec81620015cd565b82525050565b6000620015ff8262001567565b9050919050565b6200161181620015f2565b82525050565b600081519050919050565b600082825260208201905092915050565b60005b838110156200165357808201518184015260208101905062001636565b8381111562001663576000848401525b50505050565b6000601f19601f8301169050919050565b6000620016878262001617565b62001693818562001622565b9350620016a581856020860162001633565b620016b08162001669565b840191505092915050565b620016c681620014dd565b82525050565b600061010082019050620016e4600083018b62001556565b620016f3602083018a620015e1565b62001702604083018962001606565b81810360608301526200171681886200167a565b905081810360808301526200172c81876200167a565b90506200173d60a0830186620016bb565b6200174c60c0830185620016bb565b6200175b60e0830184620016bb565b9998505050505050505050565b600080fd5b600080fd5b7f4e487b7100000000000000000000000000000000000000000000000000000000600052604160045260246000fd5b620017ac8262001669565b810181811067ffffffffffffffff82111715620017ce57620017cd62001772565b5b80604052505050565b6000620017e3620014c9565b9050620017f18282620017a1565b919050565b600067ffffffffffffffff82111562001814576200181362001772565b5b6200181f8262001669565b9050602081019050919050565b82818337600083830152505050565b6000620018526200184c84620017f6565b620017d7565b9050828152602081018484840111156200187157620018706200176d565b5b6200187e8482856200182c565b509392505050565b600082601f8301126200189e576200189d62001768565b5b8135620018b08482602086016200183b565b91505092915050565b600080600080600080600080610100898b031215620018dd57620018dc620014d3565b5b600089013567ffffffffffffffff811115620018fe57620018fd620014d8565b5b6200190c8b828c0162001886565b985050602089013567ffffffffffffffff81111562001930576200192f620014d8565b5b6200193e8b828c0162001886565b9750506040620019518b828c0162001501565b9650506060620019648b828c0162001501565b955050608089013567ffffffffffffffff811115620019885762001987620014d8565b5b620019968b828c0162001886565b94505060a089013567ffffffffffffffff811115620019ba57620019b9620014d8565b5b620019c88b828c0162001886565b93505060c0620019db8b828c0162001501565b92505060e089013567ffffffffffffffff811115620019ff57620019fe620014d8565b5b62001a0d8b828c0162001886565b9150509295985092959890939650565b600081519050919050565b600082825260208201905092915050565b6000819050602082019050919050565b62001a5481620014dd565b82525050565b600062001a68838362001a49565b60208301905092915050565b6000602082019050919050565b600062001a8e8262001a1d565b62001a9a818562001a28565b935062001aa78362001a39565b8060005b8381101562001ade57815162001ac2888262001a5a565b975062001acf8362001a74565b92505060018101905062001aab565b5085935050505092915050565b6000602082019050818103600083015262001b07818462001a81565b905092915050565b600060208201905062001b266000830184620016bb565b92915050565b600081519050919050565b600082825260208201905092915050565b6000819050602082019050919050565b62001b6381620015f2565b82525050565b600082825260208201905092915050565b600062001b878262001617565b62001b93818562001b69565b935062001ba581856020860162001633565b62001bb08162001669565b840191505092915050565b600060808301600083015162001bd5600086018262001b58565b50602083015162001bea602086018262001a49565b506040830151848203604086015262001c04828262001b7a565b915050606083015162001c1b606086018262001a49565b508091505092915050565b600062001c34838362001bbb565b905092915050565b6000602082019050919050565b600062001c568262001b2c565b62001c62818562001b37565b93508360208202850162001c768562001b48565b8060005b8581101562001cb8578484038952815162001c96858262001c26565b945062001ca38362001c3c565b925060208a0199505060018101905062001c7a565b50829750879550505050505092915050565b6000602082019050818103600083015262001ce6818462001c49565b905092915050565b600081519050919050565b600082825260208201905092915050565b6000819050602082019050919050565b600062001d28838362001b58565b60208301905092915050565b6000602082019050919050565b600062001d4e8262001cee565b62001d5a818562001cf9565b935062001d678362001d0a565b8060005b8381101562001d9e57815162001d82888262001d1a565b975062001d8f8362001d34565b92505060018101905062001d6b565b5085935050505092915050565b62001db681620015cd565b82525050565b62001dc7816200154a565b82525050565b60006101808301600083015162001de8600086018262001b58565b506020830151848203602086015262001e02828262001b7a565b9150506040830151848203604086015262001e1e828262001b7a565b915050606083015162001e35606086018262001a49565b50608083015162001e4a608086018262001a49565b5060a083015184820360a086015262001e64828262001d41565b91505060c083015162001e7b60c086018262001a49565b5060e083015162001e9060e086018262001dab565b5061010083015184820361010086015262001eac828262001b7a565b91505061012083015184820361012086015262001eca828262001b7a565b91505061014083015184820361014086015262001ee8828262001b7a565b91505061016083015162001f0161016086018262001dbc565b508091505092915050565b6000602082019050818103600083015262001f28818462001dcd565b905092915050565b60008060006060848603121562001f4c5762001f4b620014d3565b5b600062001f5c8682870162001501565b935050602062001f6f8682870162001501565b925050604084013567ffffffffffffffff81111562001f935762001f92620014d8565b5b62001fa18682870162001886565b9150509250925092565b7f4e487b7100000000000000000000000000000000000000000000000000000000600052602260045260246000fd5b6000600282049050600182168062001ff357607f821691505b60208210810362002009576200200862001fab565b5b50919050565b7f4e487b7100000000000000000000000000000000000000000000000000000000600052601160045260246000fd5b60006200204b82620014dd565b91507fffffffffffffffffffffffffffffffffffffffffffffffffffffffffffffffff820362002080576200207f6200200f565b5b600182019050919050565b60006080820190508181036000830152620020a781876200167a565b90508181036020830152620020bd81866200167a565b9050620020ce6040830185620016bb565b8181036060830152620020e281846200167a565b905095945050505050565b7f50726f6a6563742063726561746f722063616e6e6f7420696e76657374000000600082015250565b600062002125601d8362001622565b91506200213282620020ed565b602082019050919050565b60006020820190508181036000830152620021588162002116565b9050919050565b7f436f6e747269627574696f6e20616d6f756e742062656c6f77206d696e696d7560008201527f6d00000000000000000000000000000000000000000000000000000000000000602082015250565b6000620021bd60218362001622565b9150620021ca826200215f565b604082019050919050565b60006020820190508181036000830152620021f081620021ae565b9050919050565b7f416464726573732068617320616c726561647920696e76657374656400000000600082015250565b60006200222f601c8362001622565b91506200223c82620021f7565b602082019050919050565b60006020820190508181036000830152620022628162002220565b9050919050565b7f50726f6a65637420616c726561647920636f6d706c6574650000000000000000600082015250565b6000620022a160188362001622565b9150620022ae8262002269565b602082019050919050565b60006020820190508181036000830152620022d48162002292565b9050919050565b6000620022e882620014dd565b9150620022f583620014dd565b9250827fffffffffffffffffffffffffffffffffffffffffffffffffffffffffffffffff038211156200232d576200232c6200200f565b5b828201905092915050565b60006200234f6200234984620017f6565b620017d7565b9050828152602081018484840111156200236e576200236d6200176d565b5b6200237b84828562001633565b509392505050565b600082601f8301126200239b576200239a62001768565b5b8151620023ad84826020860162002338565b91505092915050565b600080600060608486031215620023d257620023d1620014d3565b5b600084015167ffffffffffffffff811115620023f357620023f2620014d8565b5b620024018682870162002383565b935050602084015167ffffffffffffffff811115620024255762002424620014d8565b5b620024338682870162002383565b925050604084015167ffffffffffffffff811115620024575762002456620014d8565b5b620024658682870162002383565b9150509250925092565b7f4f6e6c792070726f6a6563742063726561746f722063616e207769746864726160008201527f772066756e647300000000000000000000000000000000000000000000000000602082015250565b6000620024cd60278362001622565b9150620024da826200246f565b604082019050919050565b600060208201905081810360008301526200250081620024be565b9050919050565b7f496e73756666696369656e742066756e64730000000000000000000000000000600082015250565b60006200253f60128362001622565b91506200254c8262002507565b602082019050919050565b60006020820190508181036000830152620025728162002530565b9050919050565b60006200258682620014dd565b91506200259383620014dd565b925082821015620025a957620025a86200200f565b5b828203905092915050565b7f4e6f20636f6e7472696275746f72730000000000000000000000000000000000600082015250565b6000620025ec600f8362001622565b9150620025f982620025b4565b602082019050919050565b600060208201905081810360008301526200261f81620025dd565b9050919050565b6000815190506200263781620014e7565b92915050565b600060208284031215620026565762002655620014d3565b5b6000620026668482850162002626565b91505092915050565b7f4e487b7100000000000000000000000000000000000000000000000000000000600052601260045260246000fd5b6000620026ab82620014dd565b9150620026b883620014dd565b925082620026cb57620026ca6200266f565b5b828204905092915050565b7f4e487b7100000000000000000000000000000000000000000000000000000000600052603260045260246000fd5b60006040820190506200271c600083018562001606565b6200272b6020830184620016bb565b939250505056fe60806040523480156200001157600080fd5b5060405162001469380380620014698339818101604052810190620000379190620003dc565b604051806060016040528085815260200184815260200182815250600360008201518160000190805190602001906200007292919062000154565b5060208201518160010190805190602001906200009192919062000154565b506040820151816002019080519060200190620000b092919062000154565b5090505081600260003373ffffffffffffffffffffffffffffffffffffffff1673ffffffffffffffffffffffffffffffffffffffff168152602001908152602001600020819055508160008190555081600260003373ffffffffffffffffffffffffffffffffffffffff1673ffffffffffffffffffffffffffffffffffffffff1681526020019081526020016000208190555081600181905550505050506200050f565b8280546200016290620004da565b90600052602060002090601f016020900481019282620001865760008555620001d2565b82601f10620001a157805160ff1916838001178555620001d2565b82800160010185558215620001d2579182015b82811115620001d1578251825591602001919060010190620001b4565b5b509050620001e19190620001e5565b5090565b5b8082111562000200576000816000905550600101620001e6565b5090565b6000604051905090565b600080fd5b600080fd5b600080fd5b600080fd5b6000601f19601f8301169050919050565b7f4e487b7100000000000000000000000000000000000000000000000000000000600052604160045260246000fd5b6200026d8262000222565b810181811067ffffffffffffffff821117156200028f576200028e62000233565b5b80604052505050565b6000620002a462000204565b9050620002b2828262000262565b919050565b600067ffffffffffffffff821115620002d557620002d462000233565b5b620002e08262000222565b9050602081019050919050565b60005b838110156200030d578082015181840152602081019050620002f0565b838111156200031d576000848401525b50505050565b60006200033a6200033484620002b7565b62000298565b9050828152602081018484840111156200035957620003586200021d565b5b62000366848285620002ed565b509392505050565b600082601f83011262000386576200038562000218565b5b81516200039884826020860162000323565b91505092915050565b6000819050919050565b620003b681620003a1565b8114620003c257600080fd5b50565b600081519050620003d681620003ab565b92915050565b60008060008060808587031215620003f957620003f86200020e565b5b600085015167ffffffffffffffff8111156200041a576200041962000213565b5b62000428878288016200036e565b945050602085015167ffffffffffffffff8111156200044c576200044b62000213565b5b6200045a878288016200036e565b93505060406200046d87828801620003c5565b925050606085015167ffffffffffffffff81111562000491576200049062000213565b5b6200049f878288016200036e565b91505092959194509250565b7f4e487b7100000000000000000000000000000000000000000000000000000000600052602260045260246000fd5b60006002820490506001821680620004f357607f821691505b602082108103620005095762000508620004ab565b5b50919050565b610f4a806200051f6000396000f3fe608060405234801561001057600080fd5b506004361061007d5760003560e01c80634bd09c2a1161005b5780634bd09c2a146100f05780636ab28bc81461010c5780637a5b4f591461012a578063a9059cbb1461014a5761007d565b806318160ddd1461008257806327e235e3146100a0578063392f37e9146100d0575b600080fd5b61008a610166565b604051610097919061081e565b60405180910390f35b6100ba60048036038101906100b591906108ab565b61016c565b6040516100c7919061081e565b60405180910390f35b6100d8610184565b6040516100e793929190610971565b60405180910390f35b61010a60048036038101906101059190610bf4565b610334565b005b61011461050a565b604051610121919061081e565b60405180910390f35b610132610510565b60405161014193929190610971565b60405180910390f35b610164600480360381019061015f9190610c6c565b6106d3565b005b60005481565b60026020528060005260406000206000915090505481565b600380600001805461019590610cdb565b80601f01602080910402602001604051908101604052809291908181526020018280546101c190610cdb565b801561020e5780601f106101e35761010080835404028352916020019161020e565b820191906000526020600020905b8154815290600101906020018083116101f157829003601f168201915b50505050509080600101805461022390610cdb565b80601f016020809104026020016040519081016040528092919081815260200182805461024f90610cdb565b801561029c5780601f106102715761010080835404028352916020019161029c565b820191906000526020600020905b81548152906001019060200180831161027f57829003601f168201915b5050505050908060020180546102b190610cdb565b80601f01602080910402602001604051908101604052809291908181526020018280546102dd90610cdb565b801561032a5780601f106102ff5761010080835404028352916020019161032a565b820191906000526020600020905b81548152906001019060200180831161030d57829003601f168201915b5050505050905083565b8051825114610378576040517f08c379a000000000000000000000000000000000000000000000000000000000815260040161036f90610d58565b60405180910390fd5b60005b825181101561050557600083828151811061039957610398610d78565b5b6020026020010151905060008383815181106103b8576103b7610d78565b5b6020026020010151905080600260003073ffffffffffffffffffffffffffffffffffffffff1673ffffffffffffffffffffffffffffffffffffffff168152602001908152602001600020541015610444576040517f08c379a000000000000000000000000000000000000000000000000000000000815260040161043b90610df3565b60405180910390fd5b80600260003073ffffffffffffffffffffffffffffffffffffffff1673ffffffffffffffffffffffffffffffffffffffff16815260200190815260200160002060008282546104939190610e42565b9250508190555080600260008473ffffffffffffffffffffffffffffffffffffffff1673ffffffffffffffffffffffffffffffffffffffff16815260200190815260200160002060008282546104e99190610e76565b92505081905550505080806104fd90610ecc565b91505061037b565b505050565b60015481565b606080606060036000016003600101600360020182805461053090610cdb565b80601f016020809104026020016040519081016040528092919081815260200182805461055c90610cdb565b80156105a95780601f1061057e576101008083540402835291602001916105a9565b820191906000526020600020905b81548152906001019060200180831161058c57829003601f168201915b505050505092508180546105bc90610cdb565b80601f01602080910402602001604051908101604052809291908181526020018280546105e890610cdb565b80156106355780601f1061060a57610100808354040283529160200191610635565b820191906000526020600020905b81548152906001019060200180831161061857829003601f168201915b5050505050915080805461064890610cdb565b80601f016020809104026020016040519081016040528092919081815260200182805461067490610cdb565b80156106c15780601f10610696576101008083540402835291602001916106c1565b820191906000526020600020905b8154815290600101906020018083116106a457829003601f168201915b50505050509050925092509250909192565b80600260003373ffffffffffffffffffffffffffffffffffffffff1673ffffffffffffffffffffffffffffffffffffffff168152602001908152602001600020541015610755576040517f08c379a000000000000000000000000000000000000000000000000000000000815260040161074c90610df3565b60405180910390fd5b80600260003373ffffffffffffffffffffffffffffffffffffffff1673ffffffffffffffffffffffffffffffffffffffff16815260200190815260200160002060008282546107a49190610e42565b9250508190555080600260008473ffffffffffffffffffffffffffffffffffffffff1673ffffffffffffffffffffffffffffffffffffffff16815260200190815260200160002060008282546107fa9190610e76565b925050819055505050565b6000819050919050565b61081881610805565b82525050565b6000602082019050610833600083018461080f565b92915050565b6000604051905090565b600080fd5b600080fd5b600073ffffffffffffffffffffffffffffffffffffffff82169050919050565b60006108788261084d565b9050919050565b6108888161086d565b811461089357600080fd5b50565b6000813590506108a58161087f565b92915050565b6000602082840312156108c1576108c0610843565b5b60006108cf84828501610896565b91505092915050565b600081519050919050565b600082825260208201905092915050565b60005b838110156109125780820151818401526020810190506108f7565b83811115610921576000848401525b50505050565b6000601f19601f8301169050919050565b6000610943826108d8565b61094d81856108e3565b935061095d8185602086016108f4565b61096681610927565b840191505092915050565b6000606082019050818103600083015261098b8186610938565b9050818103602083015261099f8185610938565b905081810360408301526109b38184610938565b9050949350505050565b600080fd5b7f4e487b7100000000000000000000000000000000000000000000000000000000600052604160045260246000fd5b6109fa82610927565b810181811067ffffffffffffffff82111715610a1957610a186109c2565b5b80604052505050565b6000610a2c610839565b9050610a3882826109f1565b919050565b600067ffffffffffffffff821115610a5857610a576109c2565b5b602082029050602081019050919050565b600080fd5b6000610a81610a7c84610a3d565b610a22565b90508083825260208201905060208402830185811115610aa457610aa3610a69565b5b835b81811015610acd5780610ab98882610896565b845260208401935050602081019050610aa6565b5050509392505050565b600082601f830112610aec57610aeb6109bd565b5b8135610afc848260208601610a6e565b91505092915050565b600067ffffffffffffffff821115610b2057610b1f6109c2565b5b602082029050602081019050919050565b610b3a81610805565b8114610b4557600080fd5b50565b600081359050610b5781610b31565b92915050565b6000610b70610b6b84610b05565b610a22565b90508083825260208201905060208402830185811115610b9357610b92610a69565b5b835b81811015610bbc5780610ba88882610b48565b845260208401935050602081019050610b95565b5050509392505050565b600082601f830112610bdb57610bda6109bd565b5b8135610beb848260208601610b5d565b91505092915050565b60008060408385031215610c0b57610c0a610843565b5b600083013567ffffffffffffffff811115610c2957610c28610848565b5b610c3585828601610ad7565b925050602083013567ffffffffffffffff811115610c5657610c55610848565b5b610c6285828601610bc6565b9150509250929050565b60008060408385031215610c8357610c82610843565b5b6000610c9185828601610896565b9250506020610ca285828601610b48565b9150509250929050565b7f4e487b7100000000000000000000000000000000000000000000000000000000600052602260045260246000fd5b60006002820490506001821680610cf357607f821691505b602082108103610d0657610d05610cac565b5b50919050565b7f496e76616c696420696e70757400000000000000000000000000000000000000600082015250565b6000610d42600d836108e3565b9150610d4d82610d0c565b602082019050919050565b60006020820190508181036000830152610d7181610d35565b9050919050565b7f4e487b7100000000000000000000000000000000000000000000000000000000600052603260045260246000fd5b7f496e73756666696369656e742062616c616e6365000000000000000000000000600082015250565b6000610ddd6014836108e3565b9150610de882610da7565b602082019050919050565b60006020820190508181036000830152610e0c81610dd0565b9050919050565b7f4e487b7100000000000000000000000000000000000000000000000000000000600052601160045260246000fd5b6000610e4d82610805565b9150610e5883610805565b925082821015610e6b57610e6a610e13565b5b828203905092915050565b6000610e8182610805565b9150610e8c83610805565b9250827fffffffffffffffffffffffffffffffffffffffffffffffffffffffffffffffff03821115610ec157610ec0610e13565b5b828201905092915050565b6000610ed782610805565b91507fffffffffffffffffffffffffffffffffffffffffffffffffffffffffffffffff8203610f0957610f08610e13565b5b60018201905091905056fea26469706673582212202c20a960a0f68c4c5ea8427ef71b945b604b71ebb53a2d1ddbfeb4c2b922ba6464736f6c634300080d0033a26469706673582212203c402954a7d137ae13cf30e997f4e725dac144016841edda71d3e4e0599fc98064736f6c634300080d0033",
  "immutableReferences": {},
  "source": "// SPDX-License-Identifier: MIT\npragma solidity ^0.8.0;\n\ncontract Token {\n    uint256 public totalSupply;\n    uint256 public lockedAmount; // S lng token b kha\n    mapping(address => uint256) public balances;\n\n    struct TokenMetadata {\n        string name;\n        string symbol;\n        string image; // Trng lu tr ng dn hoc m hash ca nh\n    }\n\n    TokenMetadata public metadata;\n\n    constructor(string memory _name, string memory _symbol, uint256 _initialSupply, string memory _image) {\n        metadata = TokenMetadata({\n            name: _name,\n            symbol: _symbol,\n            image: _image\n        });\n        // ...\n        balances[msg.sender] = _initialSupply;\n        totalSupply = _initialSupply;\n        balances[msg.sender] = _initialSupply;\n        lockedAmount = _initialSupply; // S lng token b kha ban u l ton b totalSupply\n    }\n\n    function getMetadata() public view returns (string memory, string memory, string memory) {\n        return (metadata.name, metadata.symbol, metadata.image);\n    }\n\n    function transfer(address _to, uint256 _amount) public {\n        require(balances[msg.sender] >= _amount, \"Insufficient balance\");\n        balances[msg.sender] -= _amount;\n        balances[_to] += _amount;\n    }\n\n    function distributeTokens(address[] memory _investors, uint256[] memory _amounts) public {\n        require(_investors.length == _amounts.length, \"Invalid input\");\n\n        for (uint256 i = 0; i < _investors.length; i++) {\n            address investor = _investors[i];\n            uint256 amount = _amounts[i];\n\n            require(balances[address(this)] >= amount, \"Insufficient balance\");\n            balances[address(this)] -= amount;\n            balances[investor] += amount;\n        }\n    }\n}\n\ncontract ProjectIDO {\n    struct WithdrawalRequest {\n        address requester;     // Address of the requester\n        uint256 amount;        // Amount of ETH requested for withdrawal\n        string reason;         // Reason for the withdrawal\n        uint256 timestamp;   // Timestamp when the request was made\n        // bytes32 transactionHash; // Transaction hash of the withdrawal\n    }\n\n    struct Project {\n        bool isCompleted;\n        Token token;\n        address createdBy;\n        string title;\n        string description;\n        uint256 minContribute;\n        uint256 raiseTarget;\n        address[] contributorAddresses; // Store the addresses of contributors\n        mapping(address => uint256) contributions; // Store the contribution amounts\n        uint256 totalContributedETH;\n        WithdrawalRequest[] withdrawalRequests;\n    }\n\n    mapping(uint256 => Project) public projects;\n    uint256[] public projectIds; // Store the IDs of all projects\n    uint256 public projectId;\n    event ProjectCreated(uint256 projectId); // Declare the event\n\n    function createProject(\n        string memory _title,\n        string memory _description,\n        uint256 _minContribute,\n        uint256 _raiseTarget,\n        string memory _tokenName,\n        string memory _tokenSymbol,\n        uint256 _tokenInitialSupply,\n        string memory _tokenImage\n    ) external {\n        projectId++;\n\n        // Deploy a new Token contract\n        Token token = new Token(_tokenName, _tokenSymbol, _tokenInitialSupply, _tokenImage);\n\n        // Store the address of the Token contract in the project\n        projects[projectId].createdBy = msg.sender;\n        projects[projectId].token = token;\n        projects[projectId].title = _title;\n        projects[projectId].description = _description;\n        projects[projectId].minContribute = _minContribute;\n        projects[projectId].raiseTarget = _raiseTarget;\n        projects[projectId].isCompleted = false;\n\n        // Emit the event with the project ID\n        emit ProjectCreated(projectId);\n\n        // Add the project ID to the projectIds array\n        projectIds.push(projectId);\n    }\n\n    function getProjectIds() external view returns (uint256[] memory) {\n        return projectIds;\n    }\n\n    struct ProjectDetails {\n        address createdBy;\n        string title;\n        string description;\n        uint256 minContribute;\n        uint256 raiseTarget;\n        address[] contributorAddresses;\n        uint256 totalContributedETH;\n        Token token;\n        string tokenName;\n        string tokenSymbol;\n        string tokenImage;\n        bool isCompleted;\n    }\n\n    function getProjectDetails(uint256 _projectId)\n        external\n        view\n        returns (ProjectDetails memory)\n    {\n        Project storage project = projects[_projectId];\n        Token token = project.token;\n        (string memory name, string memory symbol, string memory image) = token.getMetadata();\n\n        ProjectDetails memory details;\n        details.createdBy = project.createdBy;\n        details.title = project.title;\n        details.description = project.description;\n        details.minContribute = project.minContribute;\n        details.raiseTarget = project.raiseTarget;\n        details.contributorAddresses = project.contributorAddresses;\n        details.totalContributedETH = project.totalContributedETH;\n        details.token = project.token;\n        details.tokenName = name;\n        details.tokenSymbol = symbol;\n        details.tokenImage = image;\n        details.isCompleted = project.isCompleted;\n\n        return details;\n    }\n\n    function invest(uint256 _projectId) external payable {\n        Project storage project = projects[_projectId];\n        require(msg.sender != project.createdBy, \"Project creator cannot invest\");\n        require(msg.value >= project.minContribute, \"Contribution amount below minimum\");\n        require(project.contributions[msg.sender] == 0, \"Address has already invested\");\n        require(project.totalContributedETH < project.raiseTarget, \"Project already complete\");\n\n        // Update the contributor's contribution amount\n        project.contributions[msg.sender] += msg.value;\n        // Update the total contributed ETH\n        project.totalContributedETH += msg.value;\n\n        // Add the contributor's address to the list if it doesn't exist\n        project.contributorAddresses.push(msg.sender);\n\n        // Check if the raise target is reached\n        if (project.totalContributedETH >= project.raiseTarget) {\n            project.isCompleted = true; // Set the project as completed\n            distributeLockedTokens(_projectId);\n        }\n    }\n\n    function distributeLockedTokens(uint256 _projectId) internal {\n        Project storage project = projects[_projectId];\n        require(project.contributorAddresses.length > 0, \"No contributors\");\n\n        // Get the Token contract address from the project\n        Token token = project.token;\n\n        // Get the lockedAmount from the Token contract\n        uint256 lockedAmount = token.lockedAmount();\n\n        // Calculate the token distribution per contributor\n        uint256 tokensToDistribute = lockedAmount / project.contributorAddresses.length;\n\n        // Distribute tokens to each contributor\n        for (uint256 i = 0; i < project.contributorAddresses.length; i++) {\n            address contributor = project.contributorAddresses[i];\n            token.transfer(contributor, tokensToDistribute);\n        }\n    }\n\n    function withdrawFunds(uint256 _projectId, uint256 _amount, string memory _reason) external {\n        Project storage project = projects[_projectId];\n        require(project.createdBy == msg.sender, \"Only project creator can withdraw funds\");\n        require(project.totalContributedETH >= _amount, \"Insufficient funds\");\n\n        // Create a new withdrawal request\n        WithdrawalRequest memory request = WithdrawalRequest({\n            requester: msg.sender,\n            amount: _amount,\n            reason: _reason,\n            timestamp: block.timestamp\n            // transactionHash: bytes32(0) // Initialize with zero\n        });\n\n        // Add the withdrawal request to the corresponding project\n        project.withdrawalRequests.push(request);\n\n        payable(msg.sender).transfer(_amount);\n        project.totalContributedETH -= _amount;\n    }\n\n    function getWithdrawalRequests(uint256 _projectId) external view returns (WithdrawalRequest[] memory) {\n        return projects[_projectId].withdrawalRequests;\n    }\n}\n",
  "sourcePath": "/Users/nguyenlam/Downloads/dev/Study/Blockchain/truffle-ido/contracts/ProjectIDO.sol",
  "compiler": {
    "name": "solc",
    "version": "0.8.13+commit.abaa5c0e.Emscripten.clang"
  },
  "schemaVersion": "3.4.14",
  "updatedAt": "2023-07-02T06:57:39.034Z",
  "networkType": "ethereum",
  "devdoc": {
    "kind": "dev",
    "methods": {},
    "version": 1
  },
  "userdoc": {
    "kind": "user",
    "methods": {},
    "version": 1
  }
}