{
  "contractName": "ProjectIDO",
  "abi": [
    {
      "anonymous": false,
      "inputs": [
        {
          "indexed": false,
          "internalType": "uint256",
          "name": "projectId",
          "type": "uint256"
        }
      ],
      "name": "ProjectCreated",
      "type": "event"
    },
    {
      "inputs": [],
      "name": "projectId",
      "outputs": [
        {
          "internalType": "uint256",
          "name": "",
          "type": "uint256"
        }
      ],
      "stateMutability": "view",
      "type": "function",
      "constant": true
    },
    {
      "inputs": [
        {
          "internalType": "uint256",
          "name": "",
          "type": "uint256"
        }
      ],
      "name": "projectIds",
      "outputs": [
        {
          "internalType": "uint256",
          "name": "",
          "type": "uint256"
        }
      ],
      "stateMutability": "view",
      "type": "function",
      "constant": true
    },
    {
      "inputs": [
        {
          "internalType": "uint256",
          "name": "",
          "type": "uint256"
        }
      ],
      "name": "projects",
      "outputs": [
        {
          "internalType": "contract Token",
          "name": "token",
          "type": "address"
        },
        {
          "internalType": "address",
          "name": "createdBy",
          "type": "address"
        },
        {
          "internalType": "string",
          "name": "title",
          "type": "string"
        },
        {
          "internalType": "string",
          "name": "description",
          "type": "string"
        },
        {
          "internalType": "uint256",
          "name": "minContribute",
          "type": "uint256"
        },
        {
          "internalType": "uint256",
          "name": "raiseTarget",
          "type": "uint256"
        },
        {
          "internalType": "uint256",
          "name": "totalContributedETH",
          "type": "uint256"
        }
      ],
      "stateMutability": "view",
      "type": "function",
      "constant": true
    },
    {
      "inputs": [
        {
          "internalType": "string",
          "name": "_title",
          "type": "string"
        },
        {
          "internalType": "string",
          "name": "_description",
          "type": "string"
        },
        {
          "internalType": "uint256",
          "name": "_minContribute",
          "type": "uint256"
        },
        {
          "internalType": "uint256",
          "name": "_raiseTarget",
          "type": "uint256"
        },
        {
          "internalType": "string",
          "name": "_tokenName",
          "type": "string"
        },
        {
          "internalType": "string",
          "name": "_tokenSymbol",
          "type": "string"
        },
        {
          "internalType": "uint256",
          "name": "_tokenInitialSupply",
          "type": "uint256"
        }
      ],
      "name": "createProject",
      "outputs": [],
      "stateMutability": "nonpayable",
      "type": "function"
    },
    {
      "inputs": [],
      "name": "getProjectIds",
      "outputs": [
        {
          "internalType": "uint256[]",
          "name": "",
          "type": "uint256[]"
        }
      ],
      "stateMutability": "view",
      "type": "function",
      "constant": true
    },
    {
      "inputs": [
        {
          "internalType": "uint256",
          "name": "_projectId",
          "type": "uint256"
        }
      ],
      "name": "getProjectDetails",
      "outputs": [
        {
          "internalType": "address",
          "name": "",
          "type": "address"
        },
        {
          "internalType": "string",
          "name": "",
          "type": "string"
        },
        {
          "internalType": "string",
          "name": "",
          "type": "string"
        },
        {
          "internalType": "uint256",
          "name": "",
          "type": "uint256"
        },
        {
          "internalType": "uint256",
          "name": "",
          "type": "uint256"
        },
        {
          "internalType": "address[]",
          "name": "",
          "type": "address[]"
        },
        {
          "internalType": "uint256",
          "name": "",
          "type": "uint256"
        },
        {
          "internalType": "contract Token",
          "name": "",
          "type": "address"
        }
      ],
      "stateMutability": "view",
      "type": "function",
      "constant": true
    },
    {
      "inputs": [
        {
          "internalType": "uint256",
          "name": "_projectId",
          "type": "uint256"
        }
      ],
      "name": "invest",
      "outputs": [],
      "stateMutability": "payable",
      "type": "function",
      "payable": true
    },
    {
      "inputs": [
        {
          "internalType": "uint256",
          "name": "_projectId",
          "type": "uint256"
        },
        {
          "internalType": "uint256",
          "name": "_amount",
          "type": "uint256"
        }
      ],
      "name": "withdrawFunds",
      "outputs": [],
      "stateMutability": "nonpayable",
      "type": "function"
    }
  ],
  "bytecode": "0x608060405234801561001057600080fd5b50612c20806100206000396000f3fe608060405260043610620000865760003560e01c806348c35ad4116200005557806348c35ad41462000155578063554c1b5a14620001995780635f8439e314620001c7578063e525310514620002125762000086565b8063107046bd146200008b57806329a613b514620000d55780632afcf48014620001055780633fafa1271462000125575b600080fd5b3480156200009857600080fd5b50620000b76004803603810190620000b1919062000cbf565b62000240565b604051620000cc979695949392919062000e56565b60405180910390f35b348015620000e257600080fd5b50620000ed620003e2565b604051620000fc919062000faf565b60405180910390f35b6200012360048036038101906200011d919062000cbf565b6200043c565b005b3480156200013257600080fd5b506200013d620005c7565b6040516200014c919062000fd3565b60405180910390f35b3480156200016257600080fd5b506200018160048036038101906200017b919062000cbf565b620005cd565b60405162000190919062000fd3565b60405180910390f35b348015620001a657600080fd5b50620001c56004803603810190620001bf919062001141565b620005f2565b005b348015620001d457600080fd5b50620001f36004803603810190620001ed919062000cbf565b620007fd565b604051620002099897969594939291906200133e565b60405180910390f35b3480156200021f57600080fd5b506200023e6004803603810190620002389190620013e1565b62000a53565b005b60006020528060005260406000206000915090508060000160009054906101000a900473ffffffffffffffffffffffffffffffffffffffff16908060010160009054906101000a900473ffffffffffffffffffffffffffffffffffffffff1690806002018054620002b19062001457565b80601f0160208091040260200160405190810160405280929190818152602001828054620002df9062001457565b8015620003305780601f10620003045761010080835404028352916020019162000330565b820191906000526020600020905b8154815290600101906020018083116200031257829003601f168201915b505050505090806003018054620003479062001457565b80601f0160208091040260200160405190810160405280929190818152602001828054620003759062001457565b8015620003c65780601f106200039a57610100808354040283529160200191620003c6565b820191906000526020600020905b815481529060010190602001808311620003a857829003601f168201915b5050505050908060040154908060050154908060080154905087565b606060018054806020026020016040519081016040528092919081815260200182805480156200043257602002820191906000526020600020905b8154815260200190600101908083116200041d575b5050505050905090565b6000806000838152602001908152602001600020905080600401543410156200049c576040517f08c379a0000000000000000000000000000000000000000000000000000000008152600401620004939062001502565b60405180910390fd5b348160070160003373ffffffffffffffffffffffffffffffffffffffff1673ffffffffffffffffffffffffffffffffffffffff1681526020019081526020016000206000828254620004ef919062001553565b92505081905550348160080160008282546200050c919062001553565b9250508190555060008160070160003373ffffffffffffffffffffffffffffffffffffffff1673ffffffffffffffffffffffffffffffffffffffff1681526020019081526020016000205403620005c35780600601339080600181540180825580915050600190039060005260206000200160009091909190916101000a81548173ffffffffffffffffffffffffffffffffffffffff021916908373ffffffffffffffffffffffffffffffffffffffff1602179055505b5050565b60025481565b60018181548110620005de57600080fd5b906000526020600020016000915090505481565b600260008154809291906200060790620015b0565b919050555060008383836040516200061f9062000bb2565b6200062d93929190620015fd565b604051809103906000f0801580156200064a573d6000803e3d6000fd5b50905033600080600254815260200190815260200160002060010160006101000a81548173ffffffffffffffffffffffffffffffffffffffff021916908373ffffffffffffffffffffffffffffffffffffffff16021790555080600080600254815260200190815260200160002060000160006101000a81548173ffffffffffffffffffffffffffffffffffffffff021916908373ffffffffffffffffffffffffffffffffffffffff16021790555087600080600254815260200190815260200160002060020190805190602001906200072692919062000bc0565b5086600080600254815260200190815260200160002060030190805190602001906200075492919062000bc0565b5085600080600254815260200190815260200160002060040181905550846000806002548152602001908152602001600020600501819055507f1ac2092e16e28eef29d1832f3dc69da1b21284a1f3159d3b26cb238b22fe4f8a600254604051620007c0919062000fd3565b60405180910390a1600160025490806001815401808255809150506001900390600052602060002001600090919091909150555050505050505050565b6000606080600080606060008060008060008b815260200190815260200160002090508060010160009054906101000a900473ffffffffffffffffffffffffffffffffffffffff168160020182600301836004015484600501548560060186600801548760000160009054906101000a900473ffffffffffffffffffffffffffffffffffffffff16868054620008939062001457565b80601f0160208091040260200160405190810160405280929190818152602001828054620008c19062001457565b8015620009125780601f10620008e65761010080835404028352916020019162000912565b820191906000526020600020905b815481529060010190602001808311620008f457829003601f168201915b50505050509650858054620009279062001457565b80601f0160208091040260200160405190810160405280929190818152602001828054620009559062001457565b8015620009a65780601f106200097a57610100808354040283529160200191620009a6565b820191906000526020600020905b8154815290600101906020018083116200098857829003601f168201915b505050505095508280548060200260200160405190810160405280929190818152602001828054801562000a3057602002820191906000526020600020905b8160009054906101000a900473ffffffffffffffffffffffffffffffffffffffff1673ffffffffffffffffffffffffffffffffffffffff1681526020019060010190808311620009e5575b505050505092509850985098509850985098509850985050919395975091939597565b600080600084815260200190815260200160002090503373ffffffffffffffffffffffffffffffffffffffff168160010160009054906101000a900473ffffffffffffffffffffffffffffffffffffffff1673ffffffffffffffffffffffffffffffffffffffff161462000afe576040517f08c379a000000000000000000000000000000000000000000000000000000000815260040162000af590620016be565b60405180910390fd5b818160080154101562000b48576040517f08c379a000000000000000000000000000000000000000000000000000000000815260040162000b3f9062001730565b60405180910390fd5b3373ffffffffffffffffffffffffffffffffffffffff166108fc839081150290604051600060405180830381858888f1935050505015801562000b8f573d6000803e3d6000fd5b508181600801600082825462000ba6919062001752565b92505081905550505050565b61145d806200178e83390190565b82805462000bce9062001457565b90600052602060002090601f01602090048101928262000bf2576000855562000c3e565b82601f1062000c0d57805160ff191683800117855562000c3e565b8280016001018555821562000c3e579182015b8281111562000c3d57825182559160200191906001019062000c20565b5b50905062000c4d919062000c51565b5090565b5b8082111562000c6c57600081600090555060010162000c52565b5090565b6000604051905090565b600080fd5b600080fd5b6000819050919050565b62000c998162000c84565b811462000ca557600080fd5b50565b60008135905062000cb98162000c8e565b92915050565b60006020828403121562000cd85762000cd762000c7a565b5b600062000ce88482850162000ca8565b91505092915050565b600073ffffffffffffffffffffffffffffffffffffffff82169050919050565b6000819050919050565b600062000d3c62000d3662000d308462000cf1565b62000d11565b62000cf1565b9050919050565b600062000d508262000d1b565b9050919050565b600062000d648262000d43565b9050919050565b62000d768162000d57565b82525050565b600062000d898262000cf1565b9050919050565b62000d9b8162000d7c565b82525050565b600081519050919050565b600082825260208201905092915050565b60005b8381101562000ddd57808201518184015260208101905062000dc0565b8381111562000ded576000848401525b50505050565b6000601f19601f8301169050919050565b600062000e118262000da1565b62000e1d818562000dac565b935062000e2f81856020860162000dbd565b62000e3a8162000df3565b840191505092915050565b62000e508162000c84565b82525050565b600060e08201905062000e6d600083018a62000d6b565b62000e7c602083018962000d90565b818103604083015262000e90818862000e04565b9050818103606083015262000ea6818762000e04565b905062000eb7608083018662000e45565b62000ec660a083018562000e45565b62000ed560c083018462000e45565b98975050505050505050565b600081519050919050565b600082825260208201905092915050565b6000819050602082019050919050565b62000f188162000c84565b82525050565b600062000f2c838362000f0d565b60208301905092915050565b6000602082019050919050565b600062000f528262000ee1565b62000f5e818562000eec565b935062000f6b8362000efd565b8060005b8381101562000fa257815162000f86888262000f1e565b975062000f938362000f38565b92505060018101905062000f6f565b5085935050505092915050565b6000602082019050818103600083015262000fcb818462000f45565b905092915050565b600060208201905062000fea600083018462000e45565b92915050565b600080fd5b600080fd5b7f4e487b7100000000000000000000000000000000000000000000000000000000600052604160045260246000fd5b620010348262000df3565b810181811067ffffffffffffffff8211171562001056576200105562000ffa565b5b80604052505050565b60006200106b62000c70565b905062001079828262001029565b919050565b600067ffffffffffffffff8211156200109c576200109b62000ffa565b5b620010a78262000df3565b9050602081019050919050565b82818337600083830152505050565b6000620010da620010d4846200107e565b6200105f565b905082815260208101848484011115620010f957620010f862000ff5565b5b62001106848285620010b4565b509392505050565b600082601f83011262001126576200112562000ff0565b5b813562001138848260208601620010c3565b91505092915050565b600080600080600080600060e0888a03121562001163576200116262000c7a565b5b600088013567ffffffffffffffff81111562001184576200118362000c7f565b5b620011928a828b016200110e565b975050602088013567ffffffffffffffff811115620011b657620011b562000c7f565b5b620011c48a828b016200110e565b9650506040620011d78a828b0162000ca8565b9550506060620011ea8a828b0162000ca8565b945050608088013567ffffffffffffffff8111156200120e576200120d62000c7f565b5b6200121c8a828b016200110e565b93505060a088013567ffffffffffffffff81111562001240576200123f62000c7f565b5b6200124e8a828b016200110e565b92505060c0620012618a828b0162000ca8565b91505092959891949750929550565b600081519050919050565b600082825260208201905092915050565b6000819050602082019050919050565b620012a78162000d7c565b82525050565b6000620012bb83836200129c565b60208301905092915050565b6000602082019050919050565b6000620012e18262001270565b620012ed81856200127b565b9350620012fa836200128c565b8060005b8381101562001331578151620013158882620012ad565b97506200132283620012c7565b925050600181019050620012fe565b5085935050505092915050565b60006101008201905062001356600083018b62000d90565b81810360208301526200136a818a62000e04565b9050818103604083015262001380818962000e04565b905062001391606083018862000e45565b620013a0608083018762000e45565b81810360a0830152620013b48186620012d4565b9050620013c560c083018562000e45565b620013d460e083018462000d6b565b9998505050505050505050565b60008060408385031215620013fb57620013fa62000c7a565b5b60006200140b8582860162000ca8565b92505060206200141e8582860162000ca8565b9150509250929050565b7f4e487b7100000000000000000000000000000000000000000000000000000000600052602260045260246000fd5b600060028204905060018216806200147057607f821691505b60208210810362001486576200148562001428565b5b50919050565b7f436f6e747269627574696f6e20616d6f756e742062656c6f77206d696e696d7560008201527f6d00000000000000000000000000000000000000000000000000000000000000602082015250565b6000620014ea60218362000dac565b9150620014f7826200148c565b604082019050919050565b600060208201905081810360008301526200151d81620014db565b9050919050565b7f4e487b7100000000000000000000000000000000000000000000000000000000600052601160045260246000fd5b6000620015608262000c84565b91506200156d8362000c84565b9250827fffffffffffffffffffffffffffffffffffffffffffffffffffffffffffffffff03821115620015a557620015a462001524565b5b828201905092915050565b6000620015bd8262000c84565b91507fffffffffffffffffffffffffffffffffffffffffffffffffffffffffffffffff8203620015f257620015f162001524565b5b600182019050919050565b6000606082019050818103600083015262001619818662000e04565b905081810360208301526200162f818562000e04565b905062001640604083018462000e45565b949350505050565b7f4f6e6c792070726f6a6563742063726561746f722063616e207769746864726160008201527f772066756e647300000000000000000000000000000000000000000000000000602082015250565b6000620016a660278362000dac565b9150620016b38262001648565b604082019050919050565b60006020820190508181036000830152620016d98162001697565b9050919050565b7f496e73756666696369656e742066756e64730000000000000000000000000000600082015250565b60006200171860128362000dac565b91506200172582620016e0565b602082019050919050565b600060208201905081810360008301526200174b8162001709565b9050919050565b60006200175f8262000c84565b91506200176c8362000c84565b92508282101562001782576200178162001524565b5b82820390509291505056fe60806040523480156200001157600080fd5b506040516200145d3803806200145d833981810160405281019062000037919062000367565b82600090805190602001906200004f929190620000df565b50816001908051906020019062000068929190620000df565b508060028190555080600560003373ffffffffffffffffffffffffffffffffffffffff1673ffffffffffffffffffffffffffffffffffffffff16815260200190815260200160002081905550806003819055506001600460006101000a81548160ff02191690831515021790555050505062000465565b828054620000ed9062000430565b90600052602060002090601f0160209004810192826200011157600085556200015d565b82601f106200012c57805160ff19168380011785556200015d565b828001600101855582156200015d579182015b828111156200015c5782518255916020019190600101906200013f565b5b5090506200016c919062000170565b5090565b5b808211156200018b57600081600090555060010162000171565b5090565b6000604051905090565b600080fd5b600080fd5b600080fd5b600080fd5b6000601f19601f8301169050919050565b7f4e487b7100000000000000000000000000000000000000000000000000000000600052604160045260246000fd5b620001f882620001ad565b810181811067ffffffffffffffff821117156200021a5762000219620001be565b5b80604052505050565b60006200022f6200018f565b90506200023d8282620001ed565b919050565b600067ffffffffffffffff82111562000260576200025f620001be565b5b6200026b82620001ad565b9050602081019050919050565b60005b83811015620002985780820151818401526020810190506200027b565b83811115620002a8576000848401525b50505050565b6000620002c5620002bf8462000242565b62000223565b905082815260208101848484011115620002e457620002e3620001a8565b5b620002f184828562000278565b509392505050565b600082601f830112620003115762000310620001a3565b5b815162000323848260208601620002ae565b91505092915050565b6000819050919050565b62000341816200032c565b81146200034d57600080fd5b50565b600081519050620003618162000336565b92915050565b60008060006060848603121562000383576200038262000199565b5b600084015167ffffffffffffffff811115620003a457620003a36200019e565b5b620003b286828701620002f9565b935050602084015167ffffffffffffffff811115620003d657620003d56200019e565b5b620003e486828701620002f9565b9250506040620003f78682870162000350565b9150509250925092565b7f4e487b7100000000000000000000000000000000000000000000000000000000600052602260045260246000fd5b600060028204905060018216806200044957607f821691505b6020821081036200045f576200045e62000401565b5b50919050565b610fe880620004756000396000f3fe608060405234801561001057600080fd5b50600436106100935760003560e01c80634bd09c2a116100665780634bd09c2a1461010e5780636a6305591461012a5780636ab28bc81461014857806395d89b4114610166578063a9059cbb1461018457610093565b806306fdde031461009857806318160ddd146100b657806318a24b5b146100d457806327e235e3146100de575b600080fd5b6100a06101a0565b6040516100ad9190610858565b60405180910390f35b6100be61022e565b6040516100cb9190610893565b60405180910390f35b6100dc610234565b005b6100f860048036038101906100f39190610920565b610358565b6040516101059190610893565b60405180910390f35b61012860048036038101906101239190610b84565b610370565b005b610132610596565b60405161013f9190610c17565b60405180910390f35b6101506105a9565b60405161015d9190610893565b60405180910390f35b61016e6105af565b60405161017b9190610858565b60405180910390f35b61019e60048036038101906101999190610c32565b61063d565b005b600080546101ad90610ca1565b80601f01602080910402602001604051908101604052809291908181526020018280546101d990610ca1565b80156102265780601f106101fb57610100808354040283529160200191610226565b820191906000526020600020905b81548152906001019060200180831161020957829003601f168201915b505050505081565b60025481565b600460009054906101000a900460ff16610283576040517f08c379a000000000000000000000000000000000000000000000000000000000815260040161027a90610d1e565b60405180910390fd5b6000600460006101000a81548160ff021916908315150217905550600354600560003373ffffffffffffffffffffffffffffffffffffffff1673ffffffffffffffffffffffffffffffffffffffff16815260200190815260200160002060008282546102ef9190610d6d565b92505081905550600354600560003073ffffffffffffffffffffffffffffffffffffffff1673ffffffffffffffffffffffffffffffffffffffff16815260200190815260200160002060008282546103479190610da1565b925050819055506000600381905550565b60056020528060005260406000206000915090505481565b600460009054906101000a900460ff16156103c0576040517f08c379a00000000000000000000000000000000000000000000000000000000081526004016103b790610e43565b60405180910390fd5b8051825114610404576040517f08c379a00000000000000000000000000000000000000000000000000000000081526004016103fb90610eaf565b60405180910390fd5b60005b825181101561059157600083828151811061042557610424610ecf565b5b60200260200101519050600083838151811061044457610443610ecf565b5b6020026020010151905080600560003073ffffffffffffffffffffffffffffffffffffffff1673ffffffffffffffffffffffffffffffffffffffff1681526020019081526020016000205410156104d0576040517f08c379a00000000000000000000000000000000000000000000000000000000081526004016104c790610f4a565b60405180910390fd5b80600560003073ffffffffffffffffffffffffffffffffffffffff1673ffffffffffffffffffffffffffffffffffffffff168152602001908152602001600020600082825461051f9190610d6d565b9250508190555080600560008473ffffffffffffffffffffffffffffffffffffffff1673ffffffffffffffffffffffffffffffffffffffff16815260200190815260200160002060008282546105759190610da1565b925050819055505050808061058990610f6a565b915050610407565b505050565b600460009054906101000a900460ff1681565b60035481565b600180546105bc90610ca1565b80601f01602080910402602001604051908101604052809291908181526020018280546105e890610ca1565b80156106355780601f1061060a57610100808354040283529160200191610635565b820191906000526020600020905b81548152906001019060200180831161061857829003601f168201915b505050505081565b600460009054906101000a900460ff161561068d576040517f08c379a000000000000000000000000000000000000000000000000000000000815260040161068490610e43565b60405180910390fd5b80600560003373ffffffffffffffffffffffffffffffffffffffff1673ffffffffffffffffffffffffffffffffffffffff16815260200190815260200160002054101561070f576040517f08c379a000000000000000000000000000000000000000000000000000000000815260040161070690610f4a565b60405180910390fd5b80600560003373ffffffffffffffffffffffffffffffffffffffff1673ffffffffffffffffffffffffffffffffffffffff168152602001908152602001600020600082825461075e9190610d6d565b9250508190555080600560008473ffffffffffffffffffffffffffffffffffffffff1673ffffffffffffffffffffffffffffffffffffffff16815260200190815260200160002060008282546107b49190610da1565b925050819055505050565b600081519050919050565b600082825260208201905092915050565b60005b838110156107f95780820151818401526020810190506107de565b83811115610808576000848401525b50505050565b6000601f19601f8301169050919050565b600061082a826107bf565b61083481856107ca565b93506108448185602086016107db565b61084d8161080e565b840191505092915050565b60006020820190508181036000830152610872818461081f565b905092915050565b6000819050919050565b61088d8161087a565b82525050565b60006020820190506108a86000830184610884565b92915050565b6000604051905090565b600080fd5b600080fd5b600073ffffffffffffffffffffffffffffffffffffffff82169050919050565b60006108ed826108c2565b9050919050565b6108fd816108e2565b811461090857600080fd5b50565b60008135905061091a816108f4565b92915050565b600060208284031215610936576109356108b8565b5b60006109448482850161090b565b91505092915050565b600080fd5b7f4e487b7100000000000000000000000000000000000000000000000000000000600052604160045260246000fd5b61098a8261080e565b810181811067ffffffffffffffff821117156109a9576109a8610952565b5b80604052505050565b60006109bc6108ae565b90506109c88282610981565b919050565b600067ffffffffffffffff8211156109e8576109e7610952565b5b602082029050602081019050919050565b600080fd5b6000610a11610a0c846109cd565b6109b2565b90508083825260208201905060208402830185811115610a3457610a336109f9565b5b835b81811015610a5d5780610a49888261090b565b845260208401935050602081019050610a36565b5050509392505050565b600082601f830112610a7c57610a7b61094d565b5b8135610a8c8482602086016109fe565b91505092915050565b600067ffffffffffffffff821115610ab057610aaf610952565b5b602082029050602081019050919050565b610aca8161087a565b8114610ad557600080fd5b50565b600081359050610ae781610ac1565b92915050565b6000610b00610afb84610a95565b6109b2565b90508083825260208201905060208402830185811115610b2357610b226109f9565b5b835b81811015610b4c5780610b388882610ad8565b845260208401935050602081019050610b25565b5050509392505050565b600082601f830112610b6b57610b6a61094d565b5b8135610b7b848260208601610aed565b91505092915050565b60008060408385031215610b9b57610b9a6108b8565b5b600083013567ffffffffffffffff811115610bb957610bb86108bd565b5b610bc585828601610a67565b925050602083013567ffffffffffffffff811115610be657610be56108bd565b5b610bf285828601610b56565b9150509250929050565b60008115159050919050565b610c1181610bfc565b82525050565b6000602082019050610c2c6000830184610c08565b92915050565b60008060408385031215610c4957610c486108b8565b5b6000610c578582860161090b565b9250506020610c6885828601610ad8565b9150509250929050565b7f4e487b7100000000000000000000000000000000000000000000000000000000600052602260045260246000fd5b60006002820490506001821680610cb957607f821691505b602082108103610ccc57610ccb610c72565b5b50919050565b7f546f6b656e20697320616c726561647920756e6c6f636b656400000000000000600082015250565b6000610d086019836107ca565b9150610d1382610cd2565b602082019050919050565b60006020820190508181036000830152610d3781610cfb565b9050919050565b7f4e487b7100000000000000000000000000000000000000000000000000000000600052601160045260246000fd5b6000610d788261087a565b9150610d838361087a565b925082821015610d9657610d95610d3e565b5b828203905092915050565b6000610dac8261087a565b9150610db78361087a565b9250827fffffffffffffffffffffffffffffffffffffffffffffffffffffffffffffffff03821115610dec57610deb610d3e565b5b828201905092915050565b7f546f6b656e206973206c6f636b65640000000000000000000000000000000000600082015250565b6000610e2d600f836107ca565b9150610e3882610df7565b602082019050919050565b60006020820190508181036000830152610e5c81610e20565b9050919050565b7f496e76616c696420696e70757400000000000000000000000000000000000000600082015250565b6000610e99600d836107ca565b9150610ea482610e63565b602082019050919050565b60006020820190508181036000830152610ec881610e8c565b9050919050565b7f4e487b7100000000000000000000000000000000000000000000000000000000600052603260045260246000fd5b7f496e73756666696369656e742062616c616e6365000000000000000000000000600082015250565b6000610f346014836107ca565b9150610f3f82610efe565b602082019050919050565b60006020820190508181036000830152610f6381610f27565b9050919050565b6000610f758261087a565b91507fffffffffffffffffffffffffffffffffffffffffffffffffffffffffffffffff8203610fa757610fa6610d3e565b5b60018201905091905056fea26469706673582212206f4eb5b9d4e92154eabb07dc44a003cf6d6093fc356acbccf4f1b8a84a1409e264736f6c634300080d0033a264697066735822122079af86b9f8eb3d772789810b8037638598409e6777dc0b5289592cb6dff9ebda64736f6c634300080d0033",
  "immutableReferences": {},
  "source": "// SPDX-License-Identifier: MIT\npragma solidity ^0.8.0;\n\n\ncontract Token {\n    string public name;\n    string public symbol;\n    uint256 public totalSupply;\n    uint256 public lockedAmount; // S lng token b kha\n    bool public tokenLocked; // C  kim tra trng thi kha token\n    mapping(address => uint256) public balances;\n\n    constructor(string memory _name, string memory _symbol, uint256 _initialSupply) {\n        name = _name;\n        symbol = _symbol;\n        totalSupply = _initialSupply;\n        balances[msg.sender] = _initialSupply;\n        lockedAmount = _initialSupply; // S lng token b kha ban u l ton b totalSupply\n        tokenLocked = true; // Ban u token b kha\n    }\n\n\n    function transfer(address _to, uint256 _amount) public {\n        require(!tokenLocked, \"Token is locked\"); // Kim tra trng thi kha token\n        require(balances[msg.sender] >= _amount, \"Insufficient balance\");\n        balances[msg.sender] -= _amount;\n        balances[_to] += _amount;\n    }\n\n    function unlockToken() public {\n        require(tokenLocked, \"Token is already unlocked\");\n        tokenLocked = false; // M kha token\n        balances[msg.sender] -= lockedAmount; // Gim s lng token b kha t ti khon ca ngi to\n        balances[address(this)] += lockedAmount; // Tng s lng token b kha vo ti khon Smart Contract\n        lockedAmount = 0; // t s lng token b kha v 0\n    }\n\n    function distributeTokens(address[] memory _investors, uint256[] memory _amounts) public {\n        require(!tokenLocked, \"Token is locked\");\n        require(_investors.length == _amounts.length, \"Invalid input\");\n\n        for (uint256 i = 0; i < _investors.length; i++) {\n            address investor = _investors[i];\n            uint256 amount = _amounts[i];\n\n            require(balances[address(this)] >= amount, \"Insufficient balance\");\n            balances[address(this)] -= amount;\n            balances[investor] += amount;\n        }\n    }\n}\n\ncontract ProjectIDO {\n    struct Project {\n        Token token;\n        address createdBy;\n        string title;\n        string description;\n        uint256 minContribute;\n        uint256 raiseTarget;\n        address[] contributorAddresses; // Store the addresses of contributors\n        mapping(address => uint256) contributions; // Store the contribution amounts\n        uint256 totalContributedETH;\n    }\n\n    mapping(uint256 => Project) public projects;\n    uint256[] public projectIds; // Store the IDs of all projects\n    uint256 public projectId;\n    event ProjectCreated(uint256 projectId); // Declare the event\n\n    function createProject(\n        string memory _title,\n        string memory _description,\n        uint256 _minContribute,\n        uint256 _raiseTarget,\n        string memory _tokenName,\n        string memory _tokenSymbol,\n        uint256 _tokenInitialSupply\n    ) external {\n        projectId++;\n\n        // Deploy a new Token contract\n        Token token = new Token(_tokenName, _tokenSymbol, _tokenInitialSupply);\n\n        // Store the address of the Token contract in the project\n        projects[projectId].createdBy = msg.sender;\n        projects[projectId].token = token;\n        projects[projectId].title = _title;\n        projects[projectId].description = _description;\n        projects[projectId].minContribute = _minContribute;\n        projects[projectId].raiseTarget = _raiseTarget;\n\n        // Emit the event with the project ID\n        emit ProjectCreated(projectId);\n\n        // Add the project ID to the projectIds array\n        projectIds.push(projectId);\n    }\n\n    function getProjectIds() external view returns (uint256[] memory) {\n        return projectIds;\n    }\n\n    function getProjectDetails(uint256 _projectId)\n        external\n        view\n        returns (\n            address,\n            string memory,\n            string memory,\n            uint256,\n            uint256,\n            address[] memory,\n            uint256,\n            Token\n        )\n    {\n        Project storage project = projects[_projectId];\n        return (\n            project.createdBy,\n            project.title,\n            project.description,\n            project.minContribute,\n            project.raiseTarget,\n            project.contributorAddresses,\n            project.totalContributedETH,\n            project.token\n        );\n    }\n\n    // Rest of the contract...\n    function invest(uint256 _projectId) external payable {\n        Project storage project = projects[_projectId];\n        require(msg.value >= project.minContribute, \"Contribution amount below minimum\");\n\n        // Update the contributor's contribution amount\n        project.contributions[msg.sender] += msg.value;\n        // Update the total contributed ETH\n        project.totalContributedETH += msg.value;\n\n        // Add the contributor's address to the list if it doesn't exist\n        if (project.contributions[msg.sender] == 0) {\n            project.contributorAddresses.push(msg.sender);\n        }\n    }\n\n    function withdrawFunds(uint256 _projectId, uint256 _amount) external {\n        Project storage project = projects[_projectId];\n        require(project.createdBy == msg.sender, \"Only project creator can withdraw funds\");\n        require(project.totalContributedETH >= _amount, \"Insufficient funds\");\n\n        payable(msg.sender).transfer(_amount);\n        project.totalContributedETH -= _amount;\n    }\n}\n",
  "sourcePath": "/Users/nguyenlam/Downloads/dev/Study/Blockchain/truffle-ido/contracts/ProjectIDO.sol",
  "compiler": {
    "name": "solc",
    "version": "0.8.13+commit.abaa5c0e.Emscripten.clang"
  },
  "schemaVersion": "3.4.14",
  "updatedAt": "2023-06-30T11:50:34.102Z",
  "networkType": "ethereum",
  "devdoc": {
    "kind": "dev",
    "methods": {},
    "version": 1
  },
  "userdoc": {
    "kind": "user",
    "methods": {},
    "version": 1
  }
}