{
  "contractName": "SimpleStorage",
  "abi": [
    {
      "inputs": [],
      "name": "test",
      "outputs": [
        {
          "internalType": "string",
          "name": "",
          "type": "string"
        }
      ],
      "stateMutability": "view",
      "type": "function"
    },
    {
      "inputs": [
        {
          "internalType": "uint256",
          "name": "num",
          "type": "uint256"
        },
        {
          "internalType": "string",
          "name": "_test",
          "type": "string"
        }
      ],
      "name": "store",
      "outputs": [],
      "stateMutability": "nonpayable",
      "type": "function"
    },
    {
      "inputs": [],
      "name": "retrieve",
      "outputs": [
        {
          "internalType": "uint256",
          "name": "",
          "type": "uint256"
        },
        {
          "internalType": "string",
          "name": "",
          "type": "string"
        }
      ],
      "stateMutability": "view",
      "type": "function"
    }
  ],
  "bytecode": "0x608060405234801561001057600080fd5b50610690806100206000396000f3fe608060405234801561001057600080fd5b50600436106100415760003560e01c80632e64cec114610046578063e1ff178a14610065578063f8a8fd6d14610081575b600080fd5b61004e61009f565b60405161005c929190610352565b60405180910390f35b61007f600480360381019061007a91906104f7565b61013c565b005b61008961016f565b6040516100969190610553565b60405180910390f35b6000606060005460018080546100b4906105a4565b80601f01602080910402602001604051908101604052809291908181526020018280546100e0906105a4565b801561012d5780601f106101025761010080835404028352916020019161012d565b820191906000526020600020905b81548152906001019060200180831161011057829003601f168201915b50505050509050915091509091565b8160008082825461014d9190610604565b92505081905550806001908051906020019061016a9291906101fd565b505050565b6001805461017c906105a4565b80601f01602080910402602001604051908101604052809291908181526020018280546101a8906105a4565b80156101f55780601f106101ca576101008083540402835291602001916101f5565b820191906000526020600020905b8154815290600101906020018083116101d857829003601f168201915b505050505081565b828054610209906105a4565b90600052602060002090601f01602090048101928261022b5760008555610272565b82601f1061024457805160ff1916838001178555610272565b82800160010185558215610272579182015b82811115610271578251825591602001919060010190610256565b5b50905061027f9190610283565b5090565b5b8082111561029c576000816000905550600101610284565b5090565b6000819050919050565b6102b3816102a0565b82525050565b600081519050919050565b600082825260208201905092915050565b60005b838110156102f35780820151818401526020810190506102d8565b83811115610302576000848401525b50505050565b6000601f19601f8301169050919050565b6000610324826102b9565b61032e81856102c4565b935061033e8185602086016102d5565b61034781610308565b840191505092915050565b600060408201905061036760008301856102aa565b81810360208301526103798184610319565b90509392505050565b6000604051905090565b600080fd5b600080fd5b61039f816102a0565b81146103aa57600080fd5b50565b6000813590506103bc81610396565b92915050565b600080fd5b600080fd5b7f4e487b7100000000000000000000000000000000000000000000000000000000600052604160045260246000fd5b61040482610308565b810181811067ffffffffffffffff82111715610423576104226103cc565b5b80604052505050565b6000610436610382565b905061044282826103fb565b919050565b600067ffffffffffffffff821115610462576104616103cc565b5b61046b82610308565b9050602081019050919050565b82818337600083830152505050565b600061049a61049584610447565b61042c565b9050828152602081018484840111156104b6576104b56103c7565b5b6104c1848285610478565b509392505050565b600082601f8301126104de576104dd6103c2565b5b81356104ee848260208601610487565b91505092915050565b6000806040838503121561050e5761050d61038c565b5b600061051c858286016103ad565b925050602083013567ffffffffffffffff81111561053d5761053c610391565b5b610549858286016104c9565b9150509250929050565b6000602082019050818103600083015261056d8184610319565b905092915050565b7f4e487b7100000000000000000000000000000000000000000000000000000000600052602260045260246000fd5b600060028204905060018216806105bc57607f821691505b6020821081036105cf576105ce610575565b5b50919050565b7f4e487b7100000000000000000000000000000000000000000000000000000000600052601160045260246000fd5b600061060f826102a0565b915061061a836102a0565b9250827fffffffffffffffffffffffffffffffffffffffffffffffffffffffffffffffff0382111561064f5761064e6105d5565b5b82820190509291505056fea264697066735822122002c3336a1e2e36f14b567fc7b29bd8232d7d137a08ee5009db5c35af05d6093f64736f6c634300080d0033",
  "immutableReferences": {},
  "source": "// SPDX-License-Identifier: MIT\n// Tells the Solidity compiler to compile only from v0.8.13 to v0.9.0\npragma solidity ^0.8.13;\n\n// This is just a simple example of a coin-like contract.\n// It is not ERC20 compatible and cannot be expected to talk to other\n// coin/token contracts.\n\ncontract SimpleStorage {\n\tuint256 number;\n    string public test;\n\n    /**\n     * @dev Store value in variable\n     * @param num value to store\n     */\n    function store(uint256 num, string memory _test) public {\n        number += num;\n        test = _test;\n    }\n\n    /**\n     * @dev Return value \n     * @return value of 'number'\n     */\n    function retrieve() public view returns (uint256, string memory){\n        return (number, test);\n    }\n}\n",
  "sourcePath": "/Users/nguyenlam/Downloads/dev/Study/Blockchain/truffle-ido/contracts/SimpleStorage.sol",
  "compiler": {
    "name": "solc",
    "version": "0.8.13+commit.abaa5c0e.Emscripten.clang"
  },
  "schemaVersion": "3.4.14",
  "updatedAt": "2023-06-30T01:46:42.921Z",
  "devdoc": {
    "kind": "dev",
    "methods": {
      "retrieve()": {
        "details": "Return value ",
        "returns": {
          "_0": "value of 'number'"
        }
      },
      "store(uint256,string)": {
        "details": "Store value in variable",
        "params": {
          "num": "value to store"
        }
      }
    },
    "version": 1
  },
  "userdoc": {
    "kind": "user",
    "methods": {},
    "version": 1
  }
}