{
  "contractName": "Token",
  "abi": [
    {
      "inputs": [
        {
          "internalType": "string",
          "name": "_name",
          "type": "string"
        },
        {
          "internalType": "string",
          "name": "_symbol",
          "type": "string"
        },
        {
          "internalType": "uint256",
          "name": "_initialSupply",
          "type": "uint256"
        },
        {
          "internalType": "string",
          "name": "_image",
          "type": "string"
        }
      ],
      "stateMutability": "nonpayable",
      "type": "constructor"
    },
    {
      "inputs": [
        {
          "internalType": "address",
          "name": "",
          "type": "address"
        }
      ],
      "name": "balances",
      "outputs": [
        {
          "internalType": "uint256",
          "name": "",
          "type": "uint256"
        }
      ],
      "stateMutability": "view",
      "type": "function"
    },
    {
      "inputs": [],
      "name": "lockedAmount",
      "outputs": [
        {
          "internalType": "uint256",
          "name": "",
          "type": "uint256"
        }
      ],
      "stateMutability": "view",
      "type": "function"
    },
    {
      "inputs": [],
      "name": "metadata",
      "outputs": [
        {
          "internalType": "string",
          "name": "name",
          "type": "string"
        },
        {
          "internalType": "string",
          "name": "symbol",
          "type": "string"
        },
        {
          "internalType": "string",
          "name": "image",
          "type": "string"
        }
      ],
      "stateMutability": "view",
      "type": "function"
    },
    {
      "inputs": [],
      "name": "totalSupply",
      "outputs": [
        {
          "internalType": "uint256",
          "name": "",
          "type": "uint256"
        }
      ],
      "stateMutability": "view",
      "type": "function"
    },
    {
      "inputs": [],
      "name": "getMetadata",
      "outputs": [
        {
          "internalType": "string",
          "name": "",
          "type": "string"
        },
        {
          "internalType": "string",
          "name": "",
          "type": "string"
        },
        {
          "internalType": "string",
          "name": "",
          "type": "string"
        }
      ],
      "stateMutability": "view",
      "type": "function"
    },
    {
      "inputs": [
        {
          "internalType": "address",
          "name": "_to",
          "type": "address"
        },
        {
          "internalType": "uint256",
          "name": "_amount",
          "type": "uint256"
        }
      ],
      "name": "transfer",
      "outputs": [],
      "stateMutability": "nonpayable",
      "type": "function"
    },
    {
      "inputs": [
        {
          "internalType": "address[]",
          "name": "_investors",
          "type": "address[]"
        },
        {
          "internalType": "uint256[]",
          "name": "_amounts",
          "type": "uint256[]"
        }
      ],
      "name": "distributeTokens",
      "outputs": [],
      "stateMutability": "nonpayable",
      "type": "function"
    }
  ],
  "bytecode": "0x60806040523480156200001157600080fd5b5060405162001469380380620014698339818101604052810190620000379190620003dc565b604051806060016040528085815260200184815260200182815250600360008201518160000190805190602001906200007292919062000154565b5060208201518160010190805190602001906200009192919062000154565b506040820151816002019080519060200190620000b092919062000154565b5090505081600260003373ffffffffffffffffffffffffffffffffffffffff1673ffffffffffffffffffffffffffffffffffffffff168152602001908152602001600020819055508160008190555081600260003373ffffffffffffffffffffffffffffffffffffffff1673ffffffffffffffffffffffffffffffffffffffff1681526020019081526020016000208190555081600181905550505050506200050f565b8280546200016290620004da565b90600052602060002090601f016020900481019282620001865760008555620001d2565b82601f10620001a157805160ff1916838001178555620001d2565b82800160010185558215620001d2579182015b82811115620001d1578251825591602001919060010190620001b4565b5b509050620001e19190620001e5565b5090565b5b8082111562000200576000816000905550600101620001e6565b5090565b6000604051905090565b600080fd5b600080fd5b600080fd5b600080fd5b6000601f19601f8301169050919050565b7f4e487b7100000000000000000000000000000000000000000000000000000000600052604160045260246000fd5b6200026d8262000222565b810181811067ffffffffffffffff821117156200028f576200028e62000233565b5b80604052505050565b6000620002a462000204565b9050620002b2828262000262565b919050565b600067ffffffffffffffff821115620002d557620002d462000233565b5b620002e08262000222565b9050602081019050919050565b60005b838110156200030d578082015181840152602081019050620002f0565b838111156200031d576000848401525b50505050565b60006200033a6200033484620002b7565b62000298565b9050828152602081018484840111156200035957620003586200021d565b5b62000366848285620002ed565b509392505050565b600082601f83011262000386576200038562000218565b5b81516200039884826020860162000323565b91505092915050565b6000819050919050565b620003b681620003a1565b8114620003c257600080fd5b50565b600081519050620003d681620003ab565b92915050565b60008060008060808587031215620003f957620003f86200020e565b5b600085015167ffffffffffffffff8111156200041a576200041962000213565b5b62000428878288016200036e565b945050602085015167ffffffffffffffff8111156200044c576200044b62000213565b5b6200045a878288016200036e565b93505060406200046d87828801620003c5565b925050606085015167ffffffffffffffff81111562000491576200049062000213565b5b6200049f878288016200036e565b91505092959194509250565b7f4e487b7100000000000000000000000000000000000000000000000000000000600052602260045260246000fd5b60006002820490506001821680620004f357607f821691505b602082108103620005095762000508620004ab565b5b50919050565b610f4a806200051f6000396000f3fe608060405234801561001057600080fd5b506004361061007d5760003560e01c80634bd09c2a1161005b5780634bd09c2a146100f05780636ab28bc81461010c5780637a5b4f591461012a578063a9059cbb1461014a5761007d565b806318160ddd1461008257806327e235e3146100a0578063392f37e9146100d0575b600080fd5b61008a610166565b604051610097919061081e565b60405180910390f35b6100ba60048036038101906100b591906108ab565b61016c565b6040516100c7919061081e565b60405180910390f35b6100d8610184565b6040516100e793929190610971565b60405180910390f35b61010a60048036038101906101059190610bf4565b610334565b005b61011461050a565b604051610121919061081e565b60405180910390f35b610132610510565b60405161014193929190610971565b60405180910390f35b610164600480360381019061015f9190610c6c565b6106d3565b005b60005481565b60026020528060005260406000206000915090505481565b600380600001805461019590610cdb565b80601f01602080910402602001604051908101604052809291908181526020018280546101c190610cdb565b801561020e5780601f106101e35761010080835404028352916020019161020e565b820191906000526020600020905b8154815290600101906020018083116101f157829003601f168201915b50505050509080600101805461022390610cdb565b80601f016020809104026020016040519081016040528092919081815260200182805461024f90610cdb565b801561029c5780601f106102715761010080835404028352916020019161029c565b820191906000526020600020905b81548152906001019060200180831161027f57829003601f168201915b5050505050908060020180546102b190610cdb565b80601f01602080910402602001604051908101604052809291908181526020018280546102dd90610cdb565b801561032a5780601f106102ff5761010080835404028352916020019161032a565b820191906000526020600020905b81548152906001019060200180831161030d57829003601f168201915b5050505050905083565b8051825114610378576040517f08c379a000000000000000000000000000000000000000000000000000000000815260040161036f90610d58565b60405180910390fd5b60005b825181101561050557600083828151811061039957610398610d78565b5b6020026020010151905060008383815181106103b8576103b7610d78565b5b6020026020010151905080600260003073ffffffffffffffffffffffffffffffffffffffff1673ffffffffffffffffffffffffffffffffffffffff168152602001908152602001600020541015610444576040517f08c379a000000000000000000000000000000000000000000000000000000000815260040161043b90610df3565b60405180910390fd5b80600260003073ffffffffffffffffffffffffffffffffffffffff1673ffffffffffffffffffffffffffffffffffffffff16815260200190815260200160002060008282546104939190610e42565b9250508190555080600260008473ffffffffffffffffffffffffffffffffffffffff1673ffffffffffffffffffffffffffffffffffffffff16815260200190815260200160002060008282546104e99190610e76565b92505081905550505080806104fd90610ecc565b91505061037b565b505050565b60015481565b606080606060036000016003600101600360020182805461053090610cdb565b80601f016020809104026020016040519081016040528092919081815260200182805461055c90610cdb565b80156105a95780601f1061057e576101008083540402835291602001916105a9565b820191906000526020600020905b81548152906001019060200180831161058c57829003601f168201915b505050505092508180546105bc90610cdb565b80601f01602080910402602001604051908101604052809291908181526020018280546105e890610cdb565b80156106355780601f1061060a57610100808354040283529160200191610635565b820191906000526020600020905b81548152906001019060200180831161061857829003601f168201915b5050505050915080805461064890610cdb565b80601f016020809104026020016040519081016040528092919081815260200182805461067490610cdb565b80156106c15780601f10610696576101008083540402835291602001916106c1565b820191906000526020600020905b8154815290600101906020018083116106a457829003601f168201915b50505050509050925092509250909192565b80600260003373ffffffffffffffffffffffffffffffffffffffff1673ffffffffffffffffffffffffffffffffffffffff168152602001908152602001600020541015610755576040517f08c379a000000000000000000000000000000000000000000000000000000000815260040161074c90610df3565b60405180910390fd5b80600260003373ffffffffffffffffffffffffffffffffffffffff1673ffffffffffffffffffffffffffffffffffffffff16815260200190815260200160002060008282546107a49190610e42565b9250508190555080600260008473ffffffffffffffffffffffffffffffffffffffff1673ffffffffffffffffffffffffffffffffffffffff16815260200190815260200160002060008282546107fa9190610e76565b925050819055505050565b6000819050919050565b61081881610805565b82525050565b6000602082019050610833600083018461080f565b92915050565b6000604051905090565b600080fd5b600080fd5b600073ffffffffffffffffffffffffffffffffffffffff82169050919050565b60006108788261084d565b9050919050565b6108888161086d565b811461089357600080fd5b50565b6000813590506108a58161087f565b92915050565b6000602082840312156108c1576108c0610843565b5b60006108cf84828501610896565b91505092915050565b600081519050919050565b600082825260208201905092915050565b60005b838110156109125780820151818401526020810190506108f7565b83811115610921576000848401525b50505050565b6000601f19601f8301169050919050565b6000610943826108d8565b61094d81856108e3565b935061095d8185602086016108f4565b61096681610927565b840191505092915050565b6000606082019050818103600083015261098b8186610938565b9050818103602083015261099f8185610938565b905081810360408301526109b38184610938565b9050949350505050565b600080fd5b7f4e487b7100000000000000000000000000000000000000000000000000000000600052604160045260246000fd5b6109fa82610927565b810181811067ffffffffffffffff82111715610a1957610a186109c2565b5b80604052505050565b6000610a2c610839565b9050610a3882826109f1565b919050565b600067ffffffffffffffff821115610a5857610a576109c2565b5b602082029050602081019050919050565b600080fd5b6000610a81610a7c84610a3d565b610a22565b90508083825260208201905060208402830185811115610aa457610aa3610a69565b5b835b81811015610acd5780610ab98882610896565b845260208401935050602081019050610aa6565b5050509392505050565b600082601f830112610aec57610aeb6109bd565b5b8135610afc848260208601610a6e565b91505092915050565b600067ffffffffffffffff821115610b2057610b1f6109c2565b5b602082029050602081019050919050565b610b3a81610805565b8114610b4557600080fd5b50565b600081359050610b5781610b31565b92915050565b6000610b70610b6b84610b05565b610a22565b90508083825260208201905060208402830185811115610b9357610b92610a69565b5b835b81811015610bbc5780610ba88882610b48565b845260208401935050602081019050610b95565b5050509392505050565b600082601f830112610bdb57610bda6109bd565b5b8135610beb848260208601610b5d565b91505092915050565b60008060408385031215610c0b57610c0a610843565b5b600083013567ffffffffffffffff811115610c2957610c28610848565b5b610c3585828601610ad7565b925050602083013567ffffffffffffffff811115610c5657610c55610848565b5b610c6285828601610bc6565b9150509250929050565b60008060408385031215610c8357610c82610843565b5b6000610c9185828601610896565b9250506020610ca285828601610b48565b9150509250929050565b7f4e487b7100000000000000000000000000000000000000000000000000000000600052602260045260246000fd5b60006002820490506001821680610cf357607f821691505b602082108103610d0657610d05610cac565b5b50919050565b7f496e76616c696420696e70757400000000000000000000000000000000000000600082015250565b6000610d42600d836108e3565b9150610d4d82610d0c565b602082019050919050565b60006020820190508181036000830152610d7181610d35565b9050919050565b7f4e487b7100000000000000000000000000000000000000000000000000000000600052603260045260246000fd5b7f496e73756666696369656e742062616c616e6365000000000000000000000000600082015250565b6000610ddd6014836108e3565b9150610de882610da7565b602082019050919050565b60006020820190508181036000830152610e0c81610dd0565b9050919050565b7f4e487b7100000000000000000000000000000000000000000000000000000000600052601160045260246000fd5b6000610e4d82610805565b9150610e5883610805565b925082821015610e6b57610e6a610e13565b5b828203905092915050565b6000610e8182610805565b9150610e8c83610805565b9250827fffffffffffffffffffffffffffffffffffffffffffffffffffffffffffffffff03821115610ec157610ec0610e13565b5b828201905092915050565b6000610ed782610805565b91507fffffffffffffffffffffffffffffffffffffffffffffffffffffffffffffffff8203610f0957610f08610e13565b5b60018201905091905056fea26469706673582212202c20a960a0f68c4c5ea8427ef71b945b604b71ebb53a2d1ddbfeb4c2b922ba6464736f6c634300080d0033",
  "immutableReferences": {},
  "source": "// SPDX-License-Identifier: MIT\npragma solidity ^0.8.0;\n\ncontract Token {\n    uint256 public totalSupply;\n    uint256 public lockedAmount; // S lng token b kha\n    mapping(address => uint256) public balances;\n\n    struct TokenMetadata {\n        string name;\n        string symbol;\n        string image; // Trng lu tr ng dn hoc m hash ca nh\n    }\n\n    TokenMetadata public metadata;\n\n    constructor(string memory _name, string memory _symbol, uint256 _initialSupply, string memory _image) {\n        metadata = TokenMetadata({\n            name: _name,\n            symbol: _symbol,\n            image: _image\n        });\n        // ...\n        balances[msg.sender] = _initialSupply;\n        totalSupply = _initialSupply;\n        balances[msg.sender] = _initialSupply;\n        lockedAmount = _initialSupply; // S lng token b kha ban u l ton b totalSupply\n    }\n\n    function getMetadata() public view returns (string memory, string memory, string memory) {\n        return (metadata.name, metadata.symbol, metadata.image);\n    }\n\n    function transfer(address _to, uint256 _amount) public {\n        require(balances[msg.sender] >= _amount, \"Insufficient balance\");\n        balances[msg.sender] -= _amount;\n        balances[_to] += _amount;\n    }\n\n    function distributeTokens(address[] memory _investors, uint256[] memory _amounts) public {\n        require(_investors.length == _amounts.length, \"Invalid input\");\n\n        for (uint256 i = 0; i < _investors.length; i++) {\n            address investor = _investors[i];\n            uint256 amount = _amounts[i];\n\n            require(balances[address(this)] >= amount, \"Insufficient balance\");\n            balances[address(this)] -= amount;\n            balances[investor] += amount;\n        }\n    }\n}\n\ncontract ProjectIDO {\n    struct WithdrawalRequest {\n        address requester;     // Address of the requester\n        uint256 amount;        // Amount of ETH requested for withdrawal\n        string reason;         // Reason for the withdrawal\n        uint256 timestamp;   // Timestamp when the request was made\n        // bytes32 transactionHash; // Transaction hash of the withdrawal\n    }\n\n    struct Project {\n        bool isCompleted;\n        Token token;\n        address createdBy;\n        string title;\n        string description;\n        uint256 minContribute;\n        uint256 raiseTarget;\n        address[] contributorAddresses; // Store the addresses of contributors\n        mapping(address => uint256) contributions; // Store the contribution amounts\n        uint256 totalContributedETH;\n        WithdrawalRequest[] withdrawalRequests;\n    }\n\n    mapping(uint256 => Project) public projects;\n    uint256[] public projectIds; // Store the IDs of all projects\n    uint256 public projectId;\n    event ProjectCreated(uint256 projectId); // Declare the event\n\n    function createProject(\n        string memory _title,\n        string memory _description,\n        uint256 _minContribute,\n        uint256 _raiseTarget,\n        string memory _tokenName,\n        string memory _tokenSymbol,\n        uint256 _tokenInitialSupply,\n        string memory _tokenImage\n    ) external {\n        projectId++;\n\n        // Deploy a new Token contract\n        Token token = new Token(_tokenName, _tokenSymbol, _tokenInitialSupply, _tokenImage);\n\n        // Store the address of the Token contract in the project\n        projects[projectId].createdBy = msg.sender;\n        projects[projectId].token = token;\n        projects[projectId].title = _title;\n        projects[projectId].description = _description;\n        projects[projectId].minContribute = _minContribute;\n        projects[projectId].raiseTarget = _raiseTarget;\n        projects[projectId].isCompleted = false;\n\n        // Emit the event with the project ID\n        emit ProjectCreated(projectId);\n\n        // Add the project ID to the projectIds array\n        projectIds.push(projectId);\n    }\n\n    function getProjectIds() external view returns (uint256[] memory) {\n        return projectIds;\n    }\n\n    struct ProjectDetails {\n        address createdBy;\n        string title;\n        string description;\n        uint256 minContribute;\n        uint256 raiseTarget;\n        address[] contributorAddresses;\n        uint256 totalContributedETH;\n        Token token;\n        string tokenName;\n        string tokenSymbol;\n        string tokenImage;\n        bool isCompleted;\n    }\n\n    function getProjectDetails(uint256 _projectId)\n        external\n        view\n        returns (ProjectDetails memory)\n    {\n        Project storage project = projects[_projectId];\n        Token token = project.token;\n        (string memory name, string memory symbol, string memory image) = token.getMetadata();\n\n        ProjectDetails memory details;\n        details.createdBy = project.createdBy;\n        details.title = project.title;\n        details.description = project.description;\n        details.minContribute = project.minContribute;\n        details.raiseTarget = project.raiseTarget;\n        details.contributorAddresses = project.contributorAddresses;\n        details.totalContributedETH = project.totalContributedETH;\n        details.token = project.token;\n        details.tokenName = name;\n        details.tokenSymbol = symbol;\n        details.tokenImage = image;\n        details.isCompleted = project.isCompleted;\n\n        return details;\n    }\n\n    function invest(uint256 _projectId) external payable {\n        Project storage project = projects[_projectId];\n        require(msg.sender != project.createdBy, \"Project creator cannot invest\");\n        require(msg.value >= project.minContribute, \"Contribution amount below minimum\");\n        require(project.contributions[msg.sender] == 0, \"Address has already invested\");\n        require(project.totalContributedETH < project.raiseTarget, \"Project already complete\");\n\n        // Update the contributor's contribution amount\n        project.contributions[msg.sender] += msg.value;\n        // Update the total contributed ETH\n        project.totalContributedETH += msg.value;\n\n        // Add the contributor's address to the list if it doesn't exist\n        project.contributorAddresses.push(msg.sender);\n\n        // Check if the raise target is reached\n        if (project.totalContributedETH >= project.raiseTarget) {\n            project.isCompleted = true; // Set the project as completed\n            distributeLockedTokens(_projectId);\n        }\n    }\n\n    function distributeLockedTokens(uint256 _projectId) internal {\n        Project storage project = projects[_projectId];\n        require(project.contributorAddresses.length > 0, \"No contributors\");\n\n        // Get the Token contract address from the project\n        Token token = project.token;\n\n        // Get the lockedAmount from the Token contract\n        uint256 lockedAmount = token.lockedAmount();\n\n        // Calculate the token distribution per contributor\n        uint256 tokensToDistribute = lockedAmount / project.contributorAddresses.length;\n\n        // Distribute tokens to each contributor\n        for (uint256 i = 0; i < project.contributorAddresses.length; i++) {\n            address contributor = project.contributorAddresses[i];\n            token.transfer(contributor, tokensToDistribute);\n        }\n    }\n\n    function withdrawFunds(uint256 _projectId, uint256 _amount, string memory _reason) external {\n        Project storage project = projects[_projectId];\n        require(project.createdBy == msg.sender, \"Only project creator can withdraw funds\");\n        require(project.totalContributedETH >= _amount, \"Insufficient funds\");\n\n        // Create a new withdrawal request\n        WithdrawalRequest memory request = WithdrawalRequest({\n            requester: msg.sender,\n            amount: _amount,\n            reason: _reason,\n            timestamp: block.timestamp\n            // transactionHash: bytes32(0) // Initialize with zero\n        });\n\n        // Add the withdrawal request to the corresponding project\n        project.withdrawalRequests.push(request);\n\n        payable(msg.sender).transfer(_amount);\n        project.totalContributedETH -= _amount;\n    }\n\n    function getWithdrawalRequests(uint256 _projectId) external view returns (WithdrawalRequest[] memory) {\n        return projects[_projectId].withdrawalRequests;\n    }\n}\n",
  "sourcePath": "/Users/nguyenlam/Downloads/dev/Study/Blockchain/truffle-ido/contracts/ProjectIDO.sol",
  "compiler": {
    "name": "solc",
    "version": "0.8.13+commit.abaa5c0e.Emscripten.clang"
  },
  "schemaVersion": "3.4.14",
  "updatedAt": "2023-07-02T06:57:39.025Z",
  "networkType": "ethereum",
  "devdoc": {
    "kind": "dev",
    "methods": {},
    "version": 1
  },
  "userdoc": {
    "kind": "user",
    "methods": {},
    "version": 1
  }
}